:020000040800F2
:10000000905B00205D02000887390008672800081F
:1000100085390008C50E00081154000800000000D2
:100020000000000000000000000000009D0100082A
:10003000C70E000800000000F9010008E94D0008A3
:1000400077020008770200087702000877020008AC
:10005000770200087702000877020008770200089C
:10006000770200087702000877020008770200088C
:10007000770200087702000877020008770200087C
:10008000770200087702000877020008770200086C
:10009000770200087702000877020008770200085C
:1000A000770200087702000877020008770200084C
:1000B000A94E0008770200087702000877020008BE
:1000C000770200087702000877020008770200082C
:1000D0007702000877020008F95300080554000869
:1000E000770200087702000877020008770200080C
:1000F00077020008770200087702000877020008FC
:1001000077020008770200087702000877020008EB
:100110007702000819510008B54E00087702000860
:1001200077020008770200087702000877020008CB
:1001300077020008770200087702000877020008BB
:1001400077020008770200087702000877020008AB
:10015000770200087702000877020008770200089B
:10016000770200087702000877020008770200088B
:1001700077020008770200087702000800000000FC
:100180007702000877020008DFF80CD000F08CFC42
:100190000048004755760008905B00202C4B1968FA
:1001A0000868B0E8F04F80F30988BFF36F8F4FF015
:1001B000000080F3118870470000000008480068C4
:1001C000006880F308884FF0000080F3148862B65E
:1001D00061B6BFF34F8FBFF36F8F00DF00BF00BF6B
:1001E00008ED00E0DFF80C00016841F470010160E7
:1001F000704700BF88ED00E0EFF30980BFF36F8F19
:10020000134B1A681EF0100F08BF20ED108A20E96A
:10021000F04F106009B44FF0500080F31188BFF325
:100220004F8FBFF36F8F08F033FD4FF0000080F366
:10023000118809BC19680868B0E8F04F1EF0100F6B
:1002400008BFB0EC108A80F30988BFF36F8F704746
:10025000B4000020EFF30580704700000648804797
:1002600006480047FEE7FEE7FEE7FEE7FEE7FEE79B
:10027000FEE7FEE7FEE7FEE7994E00088901000869
:100280002DE9F05F0546002092469B4688460646CB
:10029000814640241BE0284641464746224600F05E
:1002A0001EFB53465A46C01A914110D311461846B8
:1002B000224600F005FB2D1A67EB01084F46224647
:1002C0000120002100F0FCFA17EB00094E41201E2E
:1002D000A4F10104DFDC484631462A464346BDE826
:1002E000F09F2DE9F0410024061B254671F1000620
:1002F00005DA01240027D0EB070067EB0101161E89
:1003000073F1000605DA0027D2EB0702012567EB3F
:100310000303FFF7B5FF86460E4617469C46AC42E0
:1003200004D00025D0EB050E65EB010624B10020BA
:10033000D2EB000760EB030C704631463A46634649
:10034000BDE8F081A0F14101192900D820307047A3
:100350000649074A0868504343F2390210440860CE
:10036000400870470149086070470000C001002044
:100370006D4EC64140EA01039B0703D009E008C95E
:10038000121F08C0042AFAD203E011F8013B00F85A
:10039000013B521EF9D27047D2B201E000F8012BA6
:1003A000491EFBD270470022F6E710B513460A46F5
:1003B00004461946FFF7F0FF204610BD30B505464C
:1003C0002A460B4612F8010B13F8014B08B1A04264
:1003D000F8D01CB1002802D06D1CF1E7284630BDD2
:1003E000CAB2401E10F8011F8A4202D00029F9D17A
:1003F00000207047421C10F8011B0029FBD1801A15
:10040000704710B5044600E0401C0378002BFBD178
:1004100000E0401C521E04D311F8013B0370002B76
:10042000F7D100210170204610BD30B505460020EF
:10043000034600E05B1C934205D2EC5CC85C201ACA
:1004400001D1002CF6D130BD2DE9FE4F804681EA66
:100450000300C00F0C46009021F0004123F000453E
:10046000B8EB0200A94105D24046214690461C4601
:100470000B46024623F00040104347D0270DC7F338
:100480000A00C3F30A510290401A019040286BDA27
:10049000C3F3130040F4801B0098924620B1002360
:1004A000D2EB030A63EB0B0B01985946C0F14002F3
:1004B000504600F005FA06460D4650465946019A48
:1004C00000F01DFA10EB08006141002487EA115288
:1004D00084EAE7731A4340D0009A62B3019A012A72
:1004E0004FEA075215DC001B61EB02014FF000429E
:1004F00002EA0752CDE90042001C41F58011324664
:100500002B4600F054FA03B0BDE8F08F4046214678
:10051000F9E7001B61EB0201001C41F58013001894
:100520005B412018A2F5001747EB030140EAD570A4
:10053000B6196D4111E06D084FEA360645EAC075FF
:100540004FEA0752001B61EB0201001C41F58011CC
:1005500049084FEA30000019514132462B4603B09A
:10056000BDE8F04F00F014BA0098012240000023CB
:10057000D0EB020263EBE073009821464FEAE0748F
:10058000B8EB000061EB0401E9E783F000435BE7AF
:1005900081F0004158E72DE9FE4F81EA030404F0A1
:1005A000004421F0004100944FF0000B23F0004381
:1005B00050EA01045ED052EA03045BD0C3F30A544C
:1005C000C1F30A552C44A4F2F3340194A0FB025465
:1005D000C1F3130141F48011C3F3130343F48013F7
:1005E00001FB024400FB034E840A970A44EA81544B
:1005F00047EA8357A4FB076802958D0A05FB078528
:100600004FEA932C04FB0C542705029D4FEA065831
:1006100047EA1637B5EB08056EEB070C870E920E0E
:1006200047EA811742EA8312A7FB0201B6EB0B01EE
:1006300064EB00042B0D43EA0C335E1844EB1C50B2
:10064000DA465146E7FB0201C5F313044FEA0B33C8
:1006500043EA14534FEA0432019C43EA0603A4F12F
:100660000C040294009CCDE900B400F0A0F903B0A2
:10067000BDE8F08F00200146F9E72DE9F04D81EA51
:10068000030404F0004B21F0004514464FF0000A2B
:1006900023F0004150EA050220D054EA01021DD0A7
:1006A000C5F30A570246C5F31303C1F31300C1F3A0
:1006B0000A5640F4801543F48013A7EB0608101B7C
:1006C000D64608F2FD3873EB050002D308F10108A5
:1006D00001E092185B41B8F1000F03DA00200146F7
:1006E000BDE8F08D00204FF48011064684460EE0F0
:1006F000171B73EB050705D3121B63EB05030643BA
:100700004CEA010C49084FEA300092185B4150EA6C
:100710000107EDD152EA030012D082EA040083EA15
:100720000501084305D0101BAB4106D2012200236E
:1007300006E000224FF0004302E06FF00102531088
:100740001AEB06004CEB085110EB0A0041EB0B01D1
:10075000BDE8F04D00F01CB90EB5C10F80EAE070A5
:100760000844CA07002140F233438DE80E000A46D0
:100770000B4600F01CF903B000BD0EB540F233414A
:1007800002910021CDE900110A460B4600F00FF955
:1007900003B000BD70B5C1F30A5201F0004500245A
:1007A000C1F3130140F2FF3341F480119A4201DAA0
:1007B000002070BD40F233439A42A2F2334203DC80
:1007C000524200F08CF800E090402C43F1D04042BF
:1007D00070BDC1F30A5210B5C1F3130140F2FF33EB
:1007E00041F480119A4201DA002010BD40F23343F7
:1007F0009A42A2F2334203DC524200F070F810BD7C
:10080000904010BD00F0004230F000400AD0C10D11
:1008100001F56071C0F3160042EA0151C2084007B9
:1008200011437047002001467047000030B5041E98
:1008300071F1000404DB4FF00044404264EB01011D
:10084000141E73F1000405DB1C464FF000435242B6
:1008500063EB0403994208BF904230BD01F00043AE
:1008600030B421F0004150EA010206D00A0DA2F591
:100870006072C1F31301002A02DC30BC0020704713
:10088000440F44EAC104C100E01830BC00EBC25080
:1008900000F047B830B50B46014600202022012465
:1008A00009E021FA02F59D4205D303FA02F5491B3E
:1008B00004FA02F52844151EA2F10102F1DC30BD54
:1008C000202A04DB203A00FA02F100207047914010
:1008D000C2F1200320FA03F3194390407047202A05
:1008E00004DB203A21FA02F00021704721FA02F3DA
:1008F000D040C2F120029140084319467047202A97
:1009000006DBCB17203A41FA02F043EAE07306E037
:1009100041FA02F3D040C2F1200291400843194647
:1009200070470029A8BF7047401C490008BF20F04D
:100930000100704710B4B0FA80FC00FA0CF050EAE5
:10094000010404BF10BC704749B1CCF1200421FA66
:1009500004F411FA0CF118BF012121430843A3EB61
:100960000C01CB1D4FEA00614FEA102042BF00206E
:1009700010BC704700EBC35010440029A4BF10BC4A
:100980007047401C490008BF20F0010010BC7047B0
:1009900010B5141E73F1000408DA401C41F1000187
:1009A00092185B411A4301D120F0010010BD2DE9DE
:1009B000F04D92469B4611B1B1FA81F202E0B0FAD5
:1009C00080F220329046FFF77BFF04460F4640EA54
:1009D0000A0041EA0B0153465A46084313D0114618
:1009E00053EA010019D0C8F140025046FFF777FFE3
:1009F00005460E46504659464246FFF761FF0843FA
:100A000005D0012004E020463946BDE8F08D0020E5
:100A1000054346EAE0762C4337430A986305E40A27
:100A2000A0EB08000022FD0A44EA47540A3002D530
:100A300000200146E9E7010510196941DDE9084593
:100A400000196941BDE8F04DA2E770B521F00043FF
:100A500003430CD0C1F30A550024D5EB040564EB25
:100A60000403D617AD1AB34102DB0020014670BD66
:100A7000201841EB025170BDC1F30A52C1F31301BA
:100A800040F2FF3341F480119A4202DA002001461D
:100A9000704740F233439A42A2F2334202DC5242A0
:100AA000FFF71DBFFFF70CBF064C074D06E0E068DF
:100AB00040F0010394E8070098471034AC42F6D3A5
:100AC000FFF766FB409B0008609B00082DE9F04D96
:100AD00000231A461B1A8A4103DB00200146BDE8A9
:100AE000F08DC1F30A52C1F3130141F480154FF0A8
:100AF000000BD10702D100186D41521E0027044699
:100B000040F2FF11384601EB620A3E46804602463B
:100B100000204FF48011FFF7E2FEC2197141BB18AB
:100B200046EB0100B4EB030C75EB000C04D3E41AA4
:100B300065EB000517460E46241908F101006D41CA
:100B400080463428E3DDF91946EB0600091BA8416D
:100B500003D24FF0FF32134601E0002213461BEB95
:100B6000070046EB0A51BDE8F04DFFF711BF30B565
:100B70008C1810F8012B12F00F0301D110F8013B73
:100B8000120906D110F8012B03E010F8015B01F8FF
:100B9000015B5B1EF9D101E001F8013B521EFBD164
:100BA000A142E6D3002030BD2DE9F05F544C8346CE
:100BB0005449A069B4F91050C217411842F1FF30EE
:100BC000A1FB012300FB013301FB0038A2FB053729
:100BD000EE1708FB057502FB0659B4F90E504FF0ED
:100BE000000AA5FB017CEE1706FB01C605FB0065AC
:100BF0006E0446EAD7367F04FB1846EB09061AEB6B
:100C00000309B4F90A30B4F90C50A2FB037C46EB9B
:100C1000C5054FEAE37608FB03C302FB0632B4F9CD
:100C200008604FEA1723A6FB01C84FEAE67707FBE7
:100C3000018106FB00104FEA003143EA02634FEAEC
:100C40000C3041EA1C51181841EB2222001C42F5DD
:100C50000043E288A0FB027603FB026200FB0A204D
:100C60004210C31752EA030048D0CBF58010C117D9
:100C7000C907C60741EA5001B6EB090640F63547F9
:100C8000A6FB070C61EB050101FB07C1002506FB74
:100C90000511FFF726FBB4F91630420B42EAC142B8
:100CA000A3FB027CDD1705FB02C54E1303FB0653B5
:100CB000A7FB025C03FB02C207FB06236A0E42EAA3
:100CC000C3125D16B4F91430A3FB007CDE1706FBDB
:100CD00000C603FB0166FB0C801843EA46336941FA
:100CE000C01841EBE6414FEA102040EA0160B4F938
:100CF00012104FEA01114018BDE8F09F0020FBE7F9
:100D00004C530020000CFEFF2DE9FC4190460F469D
:100D100005466B460622F721772003F067FE9DF813
:100D200000009DF80110000340EA01109DF8021038
:100D3000404C40EA111666609DF803009DF80410CF
:100D4000000340EA01109DF8051040EA11103A49ED
:100D5000A060C2100B88B1F902C0A2EB4302C3EB42
:100D600020104043B1F9043002FB0CF20013D21200
:100D7000584302EBA030886100EB80008030001205
:100D8000FFF7EAFC9FED2D1B53EC112BFFF775FCD1
:100D9000FFF764FDE0603046FFF706FFFFF7EDFC6C
:100DA0009FED281B53EC112BFFF767FCFFF756FD57
:100DB0002061294604F1100007F070F894ED030A51
:100DC00087ED000AD5ED000AF5EEC00AF1EE10FA43
:100DD00026DD9FED1E1A81EE200A10EE100AFFF7A5
:100DE00011FD41EC100B9FED1A1B04F0B5FB9FEDBC
:100DF0001A1B51EC100B53EC112BFFF7C6FB9FEDA8
:100E0000181B53EC112BFFF7C6FB9FED171B53EC80
:100E1000112BFFF732FCFFF721FD00EE100A01E075
:100E20009FED130ADFED130A30EE200A88ED000A69
:100E3000BDE8FC81600100204C5300200000000050
:100E400000005940000000000000D940CDEC7D4476
:100E500028610C878A5AC83F000000000000F03F5C
:100E60000000006066A2724000000080BE9F7A3FD2
:100E700000000000008018431FB503AB0122D02101
:100E8000772003F0B3FD0E4B18228821772003F062
:100E9000ADFDB3208DF800006B460122F4217720D0
:100EA00003F0C4FD14208DF800006B460122F521EB
:100EB000772003F0BBFD9DF80C0004B010BD0000CE
:100EC0004C530020FEE7704700B5012000F017F8F2
:100ED000012000F014F801205DF804EB00F00FB8D9
:100EE00000B5012000F00BF8012000F008F8012007
:100EF00000F005F801205DF804EBAFF30080401E20
:100F0000FDD2704703480021C1800181642102485D
:100F1000FFF749BA40010020244D002010B50024FD
:100F200008210EA004F0CCFA16A118A000F0E6F9F2
:100F300080B1641CC4F1080120A004F0C1FA64204F
:100F400000F0EAFA082CEFDB082127A0BDE81040EA
:100F500004F0B6BA611C32A0F8E70000BFAACABC10
:100F6000C1ACBDD34F6E654E6574B7FECEF1C6F70A
:100F7000A3ACD7EEB4F3D6D8CAD42564B4CE2E2E03
:100F80002E0D0A00434F4E4E4543540041542B430F
:100F9000495053544152543D22544350222C226D07
:100FA000717474732E6865636C6F7564732E636FF0
:100FB0006D222C313838330D0A0000004F6E654E1B
:100FC0006574B7FECEF1C6F7C1ACBDD3CAA7B0DC1D
:100FD000A3ACCAA3D3E0D6D8CAD4B4CECAFDA3BAB0
:100FE00025640D0A00000000B4EDCEF3A3BA4F6EE5
:100FF000654E6574B7FECEF1C6F7C1ACBDD3D6D889
:10100000CAD42564B4CEBEF9CAA7B0DCA3ACD2D191
:10101000CDCBB3F6D6D8CAD4A3A10D0A00000000E8
:101020004F6E654E6574B7FECEF1C6F7C1ACBDD349
:10103000B3C9B9A6A3A1A3A8D6D8CAD4B4CECAFDB1
:10104000A3BA2564A3A90D0A0000000010B500246E
:101050000A2110A004F034FA16A118A000F04EF9ED
:1010600080B1641CC4F10A011DA004F029FA6420B7
:1010700000F052FA0A2CEFDBBDE810400A2121A053
:1010800004F01EBA611C2BA004F01AFA32490120A8
:10109000C86010BDBFAACABCC1ACBDD35769466900
:1010A000A3ACD7EEB4F3D6D8CAD42564B4CE2E2ED2
:1010B0002E0D0A00474F54204950000041542B4345
:1010C000574A41503D22434D43432D524442222C26
:1010D000223133353136333033393034220D0A0082
:1010E00057694669C1ACBDD3CAA7B0DCA3ACCAA3DB
:1010F000D3E0D6D8CAD4B4CECAFDA3BA25640D0AAB
:1011000000000000B4EDCEF3A3BA57694669C1AC44
:10111000BDD3D6D8CAD42564B4CEBEF9CAA7B0DC34
:10112000A3ACD2D1CDCBB3F6D6D8CAD4A3A10D0AE5
:101130000000000057694669C1ACBDD3B3C9B9A668
:10114000A3A1A3A8D6D8CAD4B4CECAFDA3BA256495
:10115000A3A90D0A000000004001002010B50446BC
:1011600000F06CF970B90CA10D48FFF727F930B108
:101170003A21FFF735F9002800D0401C10BD09A026
:1011800004F09EF9012000F0C7F9641E2404240C29
:10119000E6D1002010BD00004950442C00000000A2
:1011A000244D00202249504422206E6F7420666F27
:1011B000756E640D0A00000010B5044600F03EF99B
:1011C00050B90AA10B48FFF7F9F828B13A21FFF707
:1011D00007F908B1401C10BD0A2007F0A5FC641EE9
:1011E0002404240CEAD1002010BD00004950442CF6
:1011F00000000000244D002010B5FFF783FE1DA065
:1012000004F05EF902E0642000F086F91BA11CA046
:1012100000F074F80028F6D11BA004F051F902E0A8
:10122000642000F079F915A11AA000F067F80028F1
:10123000F6D11CA004F044F902E0642000F06CF93F
:101240000EA11CA000F05AF80028F6D11DA004F051
:1012500037F9FFF7FBFE1E48C068012809D11DA021
:1012600004F02EF9FFF75AFEBDE810401DA004F06F
:1012700027B910BD312E2041540D0A004F4B0000FC
:1012800041540D0A00000000322E2043574D4F44B8
:10129000450D0A0041542B43574D4F44453D310DF8
:1012A0000A000000332E2041542B4357444843503A
:1012B0000D0A000041542B4357444843503D312C04
:1012C000310D0A00342E2043574A41500D0A0000C8
:1012D00040010020352E2043495053544152540DB3
:1012E0000A000000362E2045535038323636204949
:1012F0006E6974204F4B0D0A0000000070B50E4659
:1013000005465024FFF776F882B20A2329460C4896
:1013100001F058FA0FE000BF00F090F840B93146F4
:101320000848FFF74BF818B1FFF7ECFD002070BD3F
:101330000A2000F0F1F8641EE4B2EDD2012070BD85
:10134000C0030020244D002030B589B00C4605466E
:10135000FFF7D8FD224609A1684604F0C1F80BA1A9
:101360006846FFF7CBFF002805D1642322462946B3
:10137000074801F027FA09B030BD000041542B4363
:10138000495053454E443D25640D0A003E0000007F
:10139000C0030020FFF730FF1F48204C00680128E1
:1013A0000CD007E0C82000F0B7F8A06B401CA06389
:1013B000052803D31AA004F083F803E002F0C4FE6A
:1013C0000028EFD115480121083003F0EFF9184E3D
:1013D0004FF400654FF4FA772946304600F0ABF938
:1013E0000120FFF7E9FEE06018B103F029F8FFF7EC
:1013F00089FD07F0F3FFE16B401AB84208D307F00C
:10140000EDFFE06301F0B0FB0A490B4802F0F4FF86
:10141000052007F089FBDFE74C0100200C000020CD
:10142000E8BF9EE68EA5E5A4B1E8B4A50D0A0000CC
:10143000000C0240D40100202C9700080648C18807
:1014400031B10289914205D10021C180084670471F
:10145000012070470181FBE74001002072B6FEE7E2
:101460002DE9F0410446876D00F072F9064694F8C4
:1014700035000025022806D08020606584F83450AD
:101480000120BDE8F0812068016821F016010160AB
:101490002068416921F080014161206C08B9A06C8D
:1014A00020B12068016821F008010160206801680E
:1014B00021F0010101600CE000F04AF9801B0528D1
:1014C00007D920206065032084F8350084F8345063
:1014D000D7E720680068C007EED194F85C103F2081
:1014E0008840B860012084F8350084F8345000202A
:1014F000C7E790F83510022903D08021416501200B
:101500007047052180F835100068016821F001015D
:10151000016000207047000070B5044600F018F923
:101520000546601C02D004480078044400F010F91D
:10153000401BA042FAD370BDA40000202DE9F84F53
:10154000DFF8BCA10022012503264FF00F090AF1A4
:10155000040BAAF1040E00BF0B6805FA02F4234045
:10156000A34270D10F7907F00307012F01D0022F9A
:1015700016D187684FEA420806FA08FC27EA0C07EA
:10158000D1F80CC00CFA08FC4CEA070CC0F808C0F3
:101590004768A7430C79C4F3001494403C4344606B
:1015A0000C79E443A4070AD0C4684FEA420C06FA57
:1015B0000CF7BC438F6807FA0CF72743C7600C7918
:1015C00004F00304022C12D1D40800EB840CDCF8E4
:1015D00020405707FF0E09FA07F824EA0804D1F85B
:1015E000108008FA07F848EA0408CCF8208004685C
:1015F0004FEA420C06FA0CF7BC430F7907F00307D9
:1016000007FA0CF7274307604C6814F4403F70D08A
:101610003C4C276847F480472760246822F0030782
:1016200004F480440094384C07EB040CDCF80848C0
:1016300097074FEA177809FA08F7BC43334FB842C7
:1016400002D1002724E054E0314FB84201D10127F4
:101650001EE0304FB84201D1022719E02E4FB842A8
:1016600001D1032714E02D4FB84201D104270FE028
:101670002B4FB84201D105270AE02A4FB84201D1C9
:10168000062705E0284FB84201D1072700E00827C8
:1016900007FA08F72743CCF80878DAF800405746ED
:1016A000D1F804C09C435FEACC2C00D51C433C60BD
:1016B000DBF800405F46D1F804C09C435FEA8C2C05
:1016C00000D51C433C60DEF800407746D1F804C0EA
:1016D0009C435FEA8C3C00D51C433C60084F083FAC
:1016E0003C68D1F804C09C435FEACC3C00D51C4365
:1016F0003C60521C102AFFF42FAFBDE8F88F0000A9
:10170000083C0140443802400030014000000240E3
:101710000004024000080240000C02400010024099
:101720000014024000180240001C024000690840FA
:1017300000D001207047426921EA02030A4043EACF
:101740000241816170470AB1816170470904FBE77A
:101750000148806870470000A400002002488168AA
:101760000278114481607047A40000200B4810B536
:10177000016841F400710160016841F48061016019
:10178000016841F480710160032000F09FF80F2090
:1017900000F006F800F050F8002010BD003C0240B8
:1017A00030B505461F4887B00024016841F010019C
:1017B0000160006806A900F01000009001A800F088
:1017C00031F90498A8B100F04DF940001649174AC4
:1017D000B0FBF1F11648491E026040F2E732C0E961
:1017E0000324C0E90114846100F08EFB040003D0DF
:1017F00015E000F037F9E9E70D4800F0CFFB0400F1
:101800000DD1362000F034F8102D07D200222946E1
:10181000362000F03BF80748056000E0012407B0DF
:10182000204630BD4038024040420F0000100040CA
:1018300008040020A80000200C4882B0016841F490
:1018400080410160006800F4804000900748001F5C
:10185000016841F0805101600068002200F0805072
:1018600000900F21901E02B000F010B844380240E2
:10187000002809DB00F01F0201219140400980008F
:1018800000F1E020C0F8001170470000F0B40E4BEA
:101890001B680C46C3F30223C3F10705042D00D9CE
:1018A0000425191D072901D2002300E0DB1E0126B3
:1018B00006FA05F1491E214099409E40761E1640C9
:1018C0003143F0BC03F038BE0CED00E0064900F0F7
:1018D000070208684FF6FF03184040EA0220034A57
:1018E00010430860704700000CED00E00000FA05AE
:1018F0002DE9F0470E46050065D0DFF81481D8F8D1
:101900000000F7B200F00700B04207D288F800707C
:10191000D8F8000000F00700B04254D128683D4CD0
:10192000810712D5400703D5206840F4E0502060BD
:101930002878000703D5206840F4604020602068C4
:10194000A96820F0F000084320602878C0072DD057
:10195000304968680839012812D0022813D00328BA
:1019600011D00968890700292DDA216821F00301C7
:1019700001432160FFF7ECFE814641F2883A0EE018
:1019800009688903EFE709688901ECE7FFF7E0FEE2
:10199000A0EB0901514502D90320BDE8F08720687A
:1019A000696800F00C00B0EB810FEFD1D8F800109F
:1019B000404601F00701B14207D90770006800F006
:1019C0000700B04201D00120E7E72878400705D59D
:1019D0002068E96820F4E050084320602878000778
:1019E00006D52068296920F4604040EAC1002060E3
:1019F00000F058F82168084AC1F30311515CC8404F
:101A00000649086006480068FFF7CAFE0020C4E7E0
:101A1000003C0240083802407C970008B0000020DB
:101A2000A80000200F2202600C4A136803F0030391
:101A30004360136803F0F0038360136803F4E0531A
:101A4000C36012684FF4E05303EAD2020261044813
:101A5000006800F007000860704700000838024086
:101A6000003C02400448054900680968044AC1F383
:101A70008221515CC8407047B00000200838024005
:101A80008C9700080448054900680968044AC1F3B6
:101A90004231515CC8407047B00000200838024015
:101AA0008C970008154810B5006810F00C02144817
:101AB00013D01449042A0FD0082A0ED10F4C241F2A
:101AC0002268236802F03F025B0207D52068C0F35A
:101AD0008810A0FB010106E0084610BD2168C1F393
:101AE0008811A1FB00010023FEF7CAFB2168C1F3A6
:101AF0000141491C4900B0FBF1F010BD083802401B
:101B00000024F40040787D012DE9F84F04006ED0E8
:101B10002078DFF84C93C007A9F104054AD009F1F9
:101B200004000168C1F38101012908D00068C0F3F5
:101B3000810002280AD1D9F80000400206D52868A1
:101B4000800337D560680028E1D033E06068B0F5E5
:101B5000803F10D0B0F5A02F286810D020F480303E
:101B60002860286820F4802028606068A8B1FFF70A
:101B7000EFFD06460DE0286840F48030F4E740F4BD
:101B800080202860F7E700BFFFF7E2FD801B642894
:101B900073D828688003F7D50CE0FFF7D9FD064617
:101BA00005E000BFFFF7D4FD801B6428F0D828684B
:101BB0008003F7D42078DFF8AC8280074FF0000A6A
:101BC0003ED5A748001D016811F00C0F08D0006831
:101BD000C0F3810002280BD1D9F80000400207D4DD
:101BE0002868800716D5E068012800D112E033E1AB
:101BF000E068B8B10120C8F80000FFF7A9FD06466B
:101C000005E000BFFFF7A4FD801B0228C0D82868AC
:101C10008007F7D52868216920F0F80040EAC10064
:101C200028600DE0C8F800A0FFF792FD064604E02A
:101C3000FFF78EFD801B02281FD828688007F7D485
:101C40002078000722D5864F87486169703771B1C7
:101C500001210160FFF77CFD064604E0FFF778FDF7
:101C6000801B022809D838688007F7D50EE0C0F835
:101C700000A0FFF76DFD064605E082E0FFF768FD76
:101C8000801B02287DD838688007F7D42078400769
:101C900068D5DFF8CCB100270BF13C0BDBF8000076
:101CA000C0000BD4DBF8001041F08051CBF80010DD
:101CB000DBF80000012700F0805000906B4E306888
:101CC000C00510D4306840F480703060FFF740FDEC
:101CD000009005E0FFF73CFD0099401A022850D81B
:101CE0003068C005F6D55E4EA0686C3601280FD06E
:101CF0000528306810D020F001003060306820F0F6
:101D000004003060A068B8B1FFF722FD00900FE03A
:101D1000306840F00100F4E740F004003060F7E77D
:101D2000FFF716FD0099411A41F28830814266D8CA
:101D300030688007F4D50EE0FFF70AFD009007E059
:101D4000FFF706FD0099411A41F28830814256D8CA
:101D500030688007F4D42FB1DBF8001021F08051F7
:101D6000CBF80010A069C8B33D49091D0968C1F34B
:101D7000810102294AD00228504607D0C8F86000E5
:101D800000E03CE0FFF7E4FC04463BE04746C8F8CF
:101D90006000FFF7DDFC064605E000BFFFF7D8FC5A
:101DA000801B02282BD828688001F7D4D4E90701CA
:101DB0000843A16A2E4A490802EB0141626A41EADE
:101DC0008211084394F82C1040EA0161C9F8001010
:101DD00001203866FFF7BCFC044606E03EE000BF89
:101DE000FFF7B6FC001B022809D828688001F7D548
:101DF00034E000BFFFF7ACFC001B022802D903202F
:101E0000BDE8F88F28688001F4D427E00128F7D0D6
:101E1000D9F80000E26900F4800191421CD1226AE5
:101E200000F03F01914217D147F6C071626A01404C
:101E3000B1EB821F10D1A26A4FF0FF3300F44031A2
:101E400003EB5202B1EB024F06D194F82C1000F0D4
:101E50007060B0EB016F01D00120D1E70020CFE727
:101E60000438024000004742800E474200700040A4
:101E70000000FFFF7047704770B590F83C20012AC2
:101E800032D0012480F83C40022280F83D200368D3
:101E90005A689D6822F070060A6832435A60134BF4
:101EA00002689A4214D0B2F1804F11D0104B9A427E
:101EB0000ED0104B9A420BD00F4B9A4208D00F4BCA
:101EC0009A4205D00E4B9A4202D00E4B9A4204D150
:101ED000496825F080031943916080F83D40002156
:101EE00080F83C10084670BD022070BD0000014023
:101EF0000004004000080040000C004000040140C5
:101F0000004001400018004010B5040003D094F8D0
:101F10003D0010B107E0012010BD002084F83C0016
:101F2000204600F01FF8022084F83D00211D2068A3
:101F300002F0C6FF012084F8460084F83E0084F8D1
:101F40003F0084F8400084F8410084F8420084F89F
:101F5000430084F8440084F8450084F83D000020E4
:101F600010BD000008B50068B0F1804F12D10A48DA
:101F7000016841F0010101600068002200F00100E9
:101F8000009005211C20FFF781FCBDE808401C20C3
:101F9000FFF76EBC08BD00004038024090F83D10CD
:101FA000012901D001207047022180F83D1001680D
:101FB000CA6842F00102CA6000681149884214D020
:101FC000B0F1804F11D00F4988420ED00E4988429F
:101FD0000BD00E49884208D00D49884205D00D49E2
:101FE000884202D00C49884204D1816801F007017F
:101FF000062903D0016841F001010160002070470B
:10200000000001400004004000080040000C0040B7
:1020100000040140004001400018004070B5044633
:1020200090F83C000025012817D0012684F83C6078
:10203000022084F83D002068826822F0770222F4B2
:102040007F4282600868502838D00DDC20284FD0AD
:1020500005DC90B3102811D14AE0022070BD302871
:1020600046D040280AD13BE060282FD070280DD000
:10207000B0F5805F03D0B0F5005F12D0012584F881
:102080003D60002084F83C00284670BDCB68D1E953
:102090000121206802F080FF2068816841F077010B
:1020A00009E0CB68D1E90121206802F075FF2068C2
:1020B000816841F480418160E1E719E0CA684968BC
:1020C000206802F07BFF5021206806E0CA6849685A
:1020D000206802F084FF6021206802F067FFCEE7ED
:1020E000CA684968206802F069FF40212068F4E767
:1020F000226801461046F0E770472DE9F04104469A
:102100000068C66805694FF00007A90713D5B10735
:1021100011D5F91E016101202077206880698007B0
:10212000204602D0FFF7E8FF04E000F07EF82046EA
:1021300000F07CF82777680716D5700714D521685A
:102140006FF004000861022020772068806910F495
:10215000407F204602D0FFF7CFFF04E000F065F893
:10216000204600F063F82777280715D5300713D5E8
:1021700021686FF008000861042020772068C0699A
:102180008007204602D0FFF7B7FF04E000F04DF8CB
:10219000204600F04BF82777E80616D5F00614D550
:1021A00021686FF010000861082020772068C0695E
:1021B00010F4407F204602D0FFF79EFF04E000F0BD
:1021C00034F8204600F032F82777E80708D0F00707
:1021D00006D021686FF001000861204600F028F861
:1021E000280608D5300606D521686FF08000086102
:1021F0002046FFF73FFE680608D5700606D5216821
:102200006FF040000861204600F03EF8A8060AD5AD
:10221000B00608D521686FF0200008612046BDE8AF
:10222000F041FFF728BEBDE8F0817047704700001D
:1022300038B5044600681049884201D1FFF78EFA8C
:102240000E48844216D10E484FF47A724168491CF8
:10225000B1FBF2F3416002FB131100290AD181683E
:102260000023491C8160074800911A4669460068AE
:1022700006F018FF38BD000000100040E802002002
:102280000000002084000020704770477047000065
:10229000F8B5016804460868CA684B6910F00F0F6A
:1022A0004FF0000559D003F0010602F49077374350
:1022B00065D0C10705D0D10503D5616C41F001019E
:1022C0006164410705D5D90703D0616C41F0020173
:1022D0006164810705D5D90703D0616C41F0040121
:1022E0006164010707D502F02001314303D0616C1E
:1022F00041F008016164616C00293AD0800604D580
:10230000900602D5204602F03CFF20684069616CCF
:10231000C0F38010090700D460B3204602F00AFF22
:1023200020684069400621D52068143050E8001F1D
:1023300021F0400140E80012002AF5D1E06BA8B17D
:102340006E490165E06BFFF7D4F8002811D0E06B0F
:10235000016D01B0BDE8F040084783060FD5930634
:102360000DD52046BDE8F84002F00BBF2046FFF730
:102370008DFFF8BD2046FFF789FF6564F8BD266B29
:102380002023012E7DD1C6067BD5D60679D50868D7
:102390004868009048694FF00206400641D5E16B5D
:1023A000086840680004000CE8D0A28D8242E5D99C
:1023B000E085C869B0F5807F2DD020680C3050E8EA
:1023C000001F21F4807140E80012002AF5D1206836
:1023D000143050E8001F21F0010140E80012002AEB
:1023E000F5D12068143050E8001F21F0400140E88A
:1023F0000012002AF5D184F84230256320680C30A1
:1024000050E8001F21F0100140E80012002AF5D129
:10241000E06BFFF725F86663A08DE18D401A81B26D
:102420002AE0A08DE18D401A81B2E08D0028A5D070
:102430000029A3D022680C3252E8000F20F49070DB
:1024400042E80007002FF5D12068143050E8002F33
:1024500022F0010240E80027002FF5D184F8423035
:10246000256320680C3050E8002F22F0100240E86D
:102470000023002BF5D166632046FFF706FFF8BD69
:10248000FFE705062BD5150629D594F8410021282C
:10249000F5D1A068B0F5805F01D12069B0B1206AA4
:1024A000411C2162216800784860E08C401E0004D5
:1024B000000CE084E3D12068C16821F08001C16094
:1024C0002068C16841F04001C160D8E7206A0088F7
:1024D000C0F308004860206A801C2062E5E74006DF
:1024E000CDD55006CBD5CA68204622F04002CA603E
:1024F00084F8413000F0B6F9C1E70000255100082A
:1025000070B5040004D094F84100002510B106E035
:10251000012070BD84F84050204600F023F82420AC
:1025200084F841002068C16821F40051C160204650
:1025300002F088FE2068016921F490410161206861
:10254000416921F02A0141612068C16841F40051CC
:10255000C1606564202084F8410084F8420065630E
:10256000002070BDF0B587B0044614216846FDF721
:102570001AFF4648444A236800244449103802257B
:102580000326934233D10A6842F480120A60096834
:1025900001F480110591016841F0040101600168B6
:1025A00001F004010591016841F008010160006833
:1025B00002AA00F0080005909814CDE9000508274C
:1025C00082E8D00069463248FEF7B8FF0420CDE922
:1025D000000502AA694682E8D0002E48FEF7AEFF49
:1025E000002205213520FFF751F9352023E02A4F3D
:1025F0000722BB4223D10B6843F400330B60096808
:1026000001F400310591016841F0010101600068A9
:10261000029400F0010005900C20CDE90005CDE901
:10262000036269461D48FEF789FF00220521262026
:10263000FFF72CF92620FFF71BF907B0F0BD184F64
:10264000BB42FAD10B6843F480230B60096801F4A4
:1026500080210591016841F0020101600068029447
:1026600000F0020005904FF44060CDE90005CDE98F
:10267000036269460B48FEF761FF0022052127200F
:10268000FFF704F92720D6E7005000404038024009
:1026900000080240000C02400044004000000240DC
:1026A000004800400004024090F84230202B01D046
:1026B0000220704721B11AB10023036302F048BE23
:1026C00001207047FEB5054633480026334C85424D
:1026D0000FD101223249FFF7E7FFE088B0F5FF7F15
:1026E00000D9E6802E482F4A0178E0881154401C1A
:1026F000E0802D48854203D101222C49FFF7D4FF09
:102700002B4885421ED101222A490096FFF7CCFFB3
:102710002848012500786070A2783AB12649012A3C
:1027200013D0022A0ED1552819D028E0012801D152
:10273000E17841B1E178012904D1062802D1E6709F
:10274000A5702671FEBDE570FEBD22798854521C2D
:10275000D0B220710828F7D30220A070FEBDA67069
:10276000002001AA0B5C1354401C0828FADB134814
:1027700000236A4601A9006806F094FC25700098C1
:102780000028EBD00E494FF080500860BFF34F8F08
:10279000BFF36F8FFEBD0000C0030020400100208A
:1027A00000000020244D0020300300200100002004
:1027B0007803002002000020244F00208C0000201D
:1027C00004ED00E02DE9F843044690F841009846F6
:1027D00016460D46202802D00220BDE8F88385B1B8
:1027E0007EB100206064212084F84100FEF7B0FF34
:1027F000A6848146E684A0682027B0F5805F02D0D9
:1028000003E00120E9E7206910B12E4600250EE023
:1028100000260CE08021204602F0B5FDA8B9C6B123
:1028200016F8010B21684860E08C401EE084E08CC3
:102830004B464FF00002CDF800800028EAD14FF05F
:102840004001204602F09FFD40B184F84170032012
:10285000C3E735F8020BC0F30800E3E784F84170E2
:102860000020BAE77047FEE710B509490520094C7A
:102870000880012211022046FEF765FF0122510265
:102880002046FEF760FF6420401EFDD110BD000011
:10289000740100200004024010B502F015F8032076
:1028A00002F09AF801F0DEFF032002F095F802F042
:1028B00033F8032002F090F801F0DCFFBDE810408F
:1028C000032002F089B800000EB5FFF7CDFFFEF738
:1028D000D3FA1A4C5828607000D0FEE700F03AF89E
:1028E000607050B3154D164E90351448903000F07E
:1028F00089F828684FF47A714843000D20656868AC
:10290000490048430D4A06EB10504C32111F6065D8
:10291000081FFEF7F9F9206D009094ED110A0223CB
:102920008DED020A606D019000226946E06F06F0AD
:1029300009FB052006F0F8F8D7E7FEE70C000020B9
:102940000CFEFFFF10B501F08DFFBDE8104001F057
:10295000BBBF000070B5FFF7F5FF42F6143002F080
:102960003BF8FFF799FF702002F084FD01F052FF61
:10297000E12002F07FFD01F04DFF082002F07AFD1A
:1029800001F048FF002002F075FD01F043FF02F066
:1029900019FAC820FEF7C0FD42F61E35184C29E092
:1029A00000F0D1F83220FEF7B7FD284602F014F807
:1029B000FFF772FF702002F05DFD01F02BFFE120B8
:1029C00002F058FD01F026FF082002F053FD01F04F
:1029D00021FF002002F04EFD01F01CFF02F0F2F991
:1029E0006168491C61600A2901D3002070BD642020
:1029F000FEF792FD00F070F80028D1D0012070BDE4
:102A00005801002070B586B0002104468DF80410EE
:102A10008DF810108DF80C108DF814108DF808102A
:102A20008DF804100D460E4600F072F807E0052000
:102A300001F0D2FF3046761CB6B2642803D200F013
:102A400056F80006F3D4FFF727FF712002F012FDBD
:102A500001F0E0FE02F0DEFC8DF8040001F084FFDE
:102A600002F0D8FC8DF8100001F07EFF02F0D2FCDD
:102A70008DF80C0001F078FF02F0CCFC8DF814000A
:102A800001F072FF02F0C6FC8DF8080001F06CFF47
:102A900002F0C0FC8DF8040001F082FF02F092F910
:102AA0009DF810009DF80C10054341EA05209DF8A3
:102AB000141041EA0020000920609DF814009DF8E0
:102AC000081041EA00209DF8041041EA0020C0F3FC
:102AD0001300606006B070BD10B500F008F800F09B
:102AE0006800082801D0002010BD012010BD10B5DD
:102AF000FFF7D2FE712002F0BDFC01F08BFE02F068
:102B000089FC044601F04CFF02F05CF9204610BD40
:102B100010B5FFF7C1FE702002F0ACFC01F07AFEA8
:102B2000AC2002F0A7FC01F075FE332002F0A2FCFD
:102B300001F070FE002002F09DFC01F06BFEBDE88C
:102B4000104002F03FB910B5FFF7A6FE702002F06A
:102B500091FC01F05FFEBA2002F08CFC01F05AFEFD
:102B6000BDE8104002F02EB970B52DED028B86B095
:102B70002648012203A9C06F06F0F4FA012840D1CB
:102B8000049A0A2192FBF1F301FB1322D2B200EE68
:102B9000102AB2EE041A0498B8EE400A90FBF1F045
:102BA000C0EE010AC0B200EE100A194AB8EE400A9F
:102BB00030EE808A18EE100A904222DCB5EEC08A10
:102BC000F1EE10FA1DDB0398059D90FBF1F0C4B205
:102BD0004FF480710F48FDF7E6FB2846FDF712FE23
:102BE00005460E4618EE100AFDF70CFE41EC100BE0
:102BF0000095CDE9016453EC102B0749054802F01C
:102C00006FFC06B0BDEC028B70BD00000C00002014
:102C100000002042D4010020649A000870B50A4EDA
:102C200000240021204601F05BFA002505EBC410CA
:102C3000305C01F077FA6D1CEDB2802DF6D3641C88
:102C4000E4B2082CEDD370BD384F00202DE9F047D9
:102C500017460646802830D240292ED2F019802807
:102C600002D9C6F18000C7B2C818402802D9C1F104
:102C70004000C3B2C818CC08401EC11700EB517009
:102C8000C0F3C708DFF838A015E03146204601F050
:102C900027FA002506EBC41909E000BF09EB05007F
:102CA00080B21AF8000001F03DFA6D1CEDB2BD4291
:102CB000F4D3641CE4B24445E7D9BDE8F0870000D2
:102CC000384F002008B18023036009B1402008601C
:102CD0000AB101201060014870470000384F002001
:102CE00010B50446007B012802D1206804F0F0F9F9
:102CF000002020606060A060207310BD5FF00102C2
:102D000000F07F030B70C00909D043F08003521C10
:102D100001F8013B042AF3DD4FF0FF307047104605
:102D200070472DE9F0410446002500680F462E4605
:102D300010B10220207315E001202073084604F032
:102D4000D9FC2060002808D0C4E9016702E02068AF
:102D500046556D1CA068A842F9D8BDE8F0812068EE
:102D600046556D1CA068A842F9D866608842F4D226
:102D70002660F2E72DE9FF47174688468146FDF7B2
:102D800039FB84B24046FDF735FB0026E01D04F018
:102D9000B1FC050025D0E11DFDF705FB12A0224680
:102DA000016829608088A88049462846FDF729FBEC
:102DB0004046FDF71FFB034600200DF1040A0121E8
:102DC00000908AE88300424629460A2000F042F932
:102DD00000B10126284604F07BF9304604B0BDE876
:102DE000F0870120FAE7000024637273702F00005F
:102DF0002DE9FF5F9A46934600251046DDF8449082
:102E00000E9F139CFDF7F6FA06B2BBF1000F1FD020
:102E100006F111001FFA80F807B10225109868B179
:102E200045F00405FDF7E6FAC7B24846FDF7E2FAB9
:102E3000C11901EB0800001D1FFA80F80F9870B14E
:102E4000012807D0022808D0022004B0BDE8F09F76
:102E50000120FAE745F00C0501E045F01405129851
:102E600008B145F02405009860B3019850B345F0CF
:102E7000C0070098FDF7BEFA05460198FDF7BAFABB
:102E8000291801EB0800001D85B229462046FFF7EE
:102E900048FF2068C0B12946FDF785FAD4E9003023
:102EA000411C102261601A54D4E900010144681FDA
:102EB000FFF724FF00B2002808DA2046FFF710FFD2
:102EC0000520C2E70320C0E70420BEE7616823684D
:102ED0000844411C616000221A54D4E90030421CAD
:102EE000042162601954D4E90050421C4D236260F1
:102EF0002B54D4E90050421C626051232B54D4E976
:102F00000030451C542265601A54D4E90050431C1B
:102F100063602A54D4E90030421C62601954D4E939
:102F20000020411C61601754D4E90030411C4FEA75
:102F30001A2261601A54D4E90030421C626003F81E
:102F400000A0D4E90030411C320A61601A54D4E96F
:102F50000020411C61601654D4E900010844324647
:102F60005946FDF74EFA606830446060780736D500
:102F7000B9F1000F01D10FF2D8091098FDF73AFA14
:102F800085B2D4E90030411C2A0A61601A54D4E9A0
:102F90000020411C61601554D4E9000108442A4610
:102FA0001099FDF72EFA6068284460604846FDF7E6
:102FB00021FA85B2D4E90030411C2A0A61601A5412
:102FC000D4E90020411C61601554D4E90001084493
:102FD0002A464946FDF715FA6068284460603806BD
:102FE00018D50098FDF706FA85B2D4E90030411CE7
:102FF0002A0A61601A54D4E90020411C616015540A
:10300000D4E9000108442A460099FDF7FAF96068FE
:1030100028446060780618D50198FDF7EBF985B271
:10302000D4E90030411C2A0A61601A54D4E9002016
:10303000411C61601554D4E9000108442A460199F5
:10304000FDF7DFF96068284460600020FDE60000BD
:10305000000000002DE9FF4F81B090464FF00006C0
:10306000119C0F9A9A465FEA000BB146314608D18F
:10307000012005B0BDE8F08F232816D02B2814D0EE
:10308000761C0298805D0028F6D141F030070AB125
:1030900047F0010706EB0A050E98AD1C68B1012840
:1030A00005D0022806D00320E3E70220E1E747F03D
:1030B000020701E047F00407AD1CB8F1000F03D090
:1030C00098F80000022807D0691D2046FFF729FE66
:1030D000206850B3691D14E05FF0000018F800107C
:1030E000401C7D29FAD100F10409AAEB0900291A34
:1030F00000912046C91CFFF714FE2068A8B1009972
:10310000C91CFDF750F9D4E90020411C6160175437
:10311000D4E9000101442846FFF7F0FD002806DA53
:103120002046FFF7DDFD0520A3E70420A1E7616845
:1031300023680844411C320A61601A54D4E9002013
:10314000411C61601654D4E90001084432460299DA
:10315000FDF757F96068304460600E9959B12368F3
:10316000411C4FEA1B2261601A54D4E90030421C12
:10317000626003F800B0B8F1000F0ED098F80000BC
:103180000228D4E90001084409D052464146FDF71F
:10319000F1F8616801EB0A006060002069E74A46C7
:1031A0004146FDF7E7F8616801EB0900F4E770B507
:1031B0000C46054604212046FFF7B3FD2168B9B14E
:1031C00060687023421C62600B54D4E90030411CDB
:1031D000022261601A54D4E90030411C2A0A61605D
:1031E0001A54D4E90020411C61601554002070BDC0
:1031F000012070BD70B50C46054604212046FFF73E
:1032000090FD2168B9B160686223421C62600B5472
:10321000D4E90030411C022261601A54D4E9003024
:10322000411C2A0A61601A54D4E90020411C6160E3
:103230001554002070BD012070BD2DE9F0474FF0FE
:103240000008089C1F4691468A46060045460AD15A
:103250000120BDE8F08759F8250020B3FDF7CAF832
:103260006D1C8044EDB2BD42F5D307EB470101EB85
:103270000805E91D2046AD1CFFF753FD2168A1B1EB
:1032800060688222431C63600A54D4E9000101444F
:103290002846FFF733FD00B2002808DA2046FFF782
:1032A0001FFD0420D5E70220D3E70320D1E76168A2
:1032B00023680844411C320A61601A54D4E9002092
:1032C000411C61601654002520E059F82500FDF7E7
:1032D00091F80646020AD4E90030411C61601A5494
:1032E000D4E900314A1C62605E54D4E9000108440C
:1032F00059F825103246FDF784F860682368304499
:10330000411C61606D1C03F800A0EDB2BD42DCD32E
:1033100000209EE7F0B50446002001235D05106003
:1033200012E0275C166807F07F0707FB036616604C
:10333000265C360601D4401CF0BDDB01AB4202D353
:103340006FF00100F0BD401C8842EADB4FF0FF3017
:10335000F0BD2DE9F8430E4607461D4690462F2145
:10336000801DFDF73DF80021009150B3441C6A46D2
:103370000421781CFFF7CEFF252004F0BBF9306054
:1033800008B32521FDF70FF8242221463068FCF709
:10339000F1FF009824342C3880B22880401C04F0BF
:1033A000A9F9C8F8000080B12988491CFCF7FBFF87
:1033B0002A882146D8F80000FCF7DCFF0020BDE891
:1033C000F8830120FBE70220F9E7306803F080FE74
:1033D0000320F4E74178022901D001207047817869
:1033E00019B1012901D0FF207047C0787047000053
:1033F0002DE9F84F04460078DDE90A7B00F00F095B
:1034000000200E460090C9F3410115468BF80010CC
:10341000984609F0080A6A460421601CFFF77AFF03
:1034200004440098641C022843D35FEAC97040D169
:10343000208840BA28800099801C88427AD83EA112
:10344000A01CFCF7BBFF10B10F20BDE8F88F9BF864
:10345000000020B101282DD002286BD12AE0BAF15A
:10346000000F67D12888401C04F044F93060002820
:1034700060D02988491CFCF796FF2A88A11C306877
:10348000FCF778FF28880099081A801E80B23880DF
:10349000401C04F02FF9C8F8000038B13988491CE5
:1034A000FCF781FF3A882888A41C33E0306803F0D9
:1034B0000FFE3FE02888009A811C91423AD8A11C57
:1034C00008440C99008840BA08800C9890B328886A
:1034D000401C04F00FF9306060B32988491CFCF7E8
:1034E00062FF2A88A11C3068FCF744FF28880099F5
:1034F000081A001F80B23880401C04F0FBF8C8F89E
:1035000000000028D2D03988491CFCF74CFF3A88CB
:103510002888241D0119D8F80000FCF72BFF2B2167
:103520003046FCF75DFF28B923213046FCF758FFF1
:1035300000288AD0FF2088E72463726571000000AC
:103540004178022904D1817811B9C0780A2801D0C4
:1035500001207047002070474178022904D181780A
:1035600011B9C0780A2801D00120704700207047A7
:103570004178022904D1817811B9C0780A2801D094
:1035800001207047002070474278022A09D18278D2
:10359000B2EB112F05D1C078C9B2884201D1002009
:1035A000704701207047000038B504460078FF21BD
:1035B0000009421E0E2A01D3084638BD0328FCD15B
:1035C000002000906A460421601CFFF7A3FE2044FF
:1035D0000099401C022907D32278D20704D102881F
:1035E00052BA921C8A4201D9FF2038BD04A1801C26
:1035F000FCF7E4FE08B10F2038BD032038BD000001
:1036000024637265710000000146FF208A78002A59
:103610000BD1CA78142A08D1087938B1012805D00D
:10362000022803D0802803D0022070470020704772
:1036300001207047827801211AB9C0781E2800D174
:1036400000210846704700007CB51E4A00211E4834
:1036500004F0B4F81D49002418254860CDE9005451
:1036600023464FF480621AA11D4805F051FECDE9B2
:103670000054002380221BA11D4805F049FECDE91E
:1036800000544FF40076002332461AA11C4805F07E
:103690003FFECDE90054002380221AA11C4805F00A
:1036A00037FECDE90054002332461AA11C4805F02C
:1036B0002FFECDE90054002332461AA11D4805F023
:1036C00027FE7CBD58970008A54D00088C000020FF
:1036D000455350383236365F5461736B000000003A
:1036E00095130008616E6A69616E5F5461736B00C7
:1036F000316C00084949435F5461736B000000005E
:10370000C928000847616D655461736B00000000B3
:10371000857500084E52465F5461736B00000000CF
:10372000D93C000854756F4C756F59695F546173CB
:103730006B000000055000082DE9F04F87B0142100
:103740006846FCF730FE47480024016841F0040158
:103750000160016801F004010591016841F08001F8
:103760000160016801F080010591016841F00101EB
:103770000160016801F001010591016841F0020159
:103780000160016801F002010591016841F0080142
:1037900001600068DFF8D08000F008004FF49075F9
:1037A0000590002229464046FDF7CDFFDFF8BC908A
:1037B0004FF43066002231464846FDF7C4FFDFF87B
:1037C000B0A04FF40077002239465046FDF7BBFF0A
:1037D000DFF8A0B000224FF478715846FDF7B3FF30
:1037E00000950125CDE90154694640460394FDF753
:1037F000A5FE0096CDE90154694648460394FDF7BD
:103800009DFE4FF48840CDE9000469464846029485
:10381000FDF794FE0097CDE90154694650460394A4
:10382000FDF78CFE1020CDE900046946584602944D
:10383000FDF784FE4FF438700090CDE901546946DD
:1038400058460394FDF77AFE280200901120CDE936
:103850000104694658460394FDF770FE07B0BDE8C1
:10386000F08F00003038024000000240000C02409F
:10387000000802400004024010B586B0002416483B
:10388000009401940294039404944FF080410594B1
:1038900001605321C0E901144FF47A71C0E90314A7
:1038A0008461FEF731FB08B1FDF7D8FD4FF480507D
:1038B000009069460848FEF7B1FB08B1FDF7CEFD60
:1038C000049404A904480594FEF7D6FA002801D010
:1038D000FDF7C4FD06B010BDE80200200C4810B58D
:1038E0000A4901604FF4E1314160002181600C22FE
:1038F000C160C0E904128161C161FEF701FE0028C8
:1039000003D0BDE81040FDF7A9BD10BD0050004038
:10391000300300200C4810B50A4901604FF4E13132
:103920004160002181600C22C160C0E90412816104
:10393000C161FEF7E5FD002803D0BDE81040FDF7AA
:103940008DBD10BD00440040780300200C4810B528
:103950000A4901604FF4E1314160002181600C228D
:10396000C160C0E904128161C161FEF7C9FD002890
:1039700003D0BDE81040FDF771BD10BD0048004008
:10398000C0030020FEE7FEE710B5002000F04AF972
:10399000E22000F0CDF8BDE81040012000F042B96F
:1039A00010B5002000F03EF9E12000F0C1F8BDE8BC
:1039B0001040012000F036B910B5002000F02AF9BF
:1039C000012000F02FF9002000F03CF9BDE8104084
:1039D000002000F02FB9000010B5FFF7EDFF08211F
:1039E000002000F037F93F21012000F033F90121D8
:1039F000022000F02FF90321084600F02BF90321E3
:103A0000042000F027F90221052000F023F90E21FF
:103A1000062000F01FF90921112000F01BF90522F2
:103A200007490A2000F028F9FFF7BAFFFFF7ACFFBB
:103A30007021072000F00EF9BDE8104000F064B8D6
:103A4000B901002010210148FDF770BE00040240BA
:103A500010B50446002000F0E5F8204600F068F8B4
:103A6000FF2000F065F80446012000F0DBF8204656
:103A700010BD70B506460D46002000F0D3F8612059
:103A800000F056F8002405E0FF2000F051F8305512
:103A9000641CE4B2AC42F7D3BDE87040012000F0F2
:103AA000C1B810B5002000F0BDF8FF2000F040F8CC
:103AB0000446012000F0B6F8204610BD10B5FFF70F
:103AC000F0FF04460020FFF7C3FF800701D4032462
:103AD00012E0C4F3011003280DD060060FD50124B5
:103AE00009210848FFF7C5FF4021072000F0B2F880
:103AF000FFF74AFF04E00224FFF76EFF00E0002416
:103B0000204610BD8153002010B5002000F082F83F
:103B10000020FFF79DFFFF2809D040F0030100209F
:103B200000F098F8BDE81040012000F073B810BD17
:103B300070B504460025200601D5012000E00020D4
:103B400000F078F86006040E012000F07BF8FFF723
:103B500079FF08B144F00104002000F073F86D1CF7
:103B6000EDB2082DE7D3204670BD000010B5052248
:103B70001B49102000F080F8052219490A2000F0A6
:103B80007BF80921174800F090F800F02DF841F279
:103B9000883400BFFFF785FF641E07D0C0F3011112
:103BA000032905D0C10607D5022402E0042400E061
:103BB0000324FFF711FF02E08006EBD5012430213A
:103BC000072000F047F8FFF7EBFE05490522491DE5
:103BD0000A2000F051F8FFF797FF204610BD0000C3
:103BE000B40100207853002010B5002000F012F836
:103BF0000020FFF72DFFFF280BD020F0010040F040
:103C00000201002000F026F8BDE81040012000F07D
:103C100001B810BD024640210148FDF794BD0000E7
:103C200000040240024680210148FDF78CBD0000DF
:103C300000040240024620210148FDF784BD000037
:103C400000040240024620210148FDF77CBD00002F
:103C50000000024070B504460D460020FFF7E2FF69
:103C600044F02000FFF764FF2846FFF761FFBDE83E
:103C700070400120FFF7D6BF70B5044615460E46CA
:103C80000020FFF7CFFF44F02000FFF751FF002492
:103C900004E0305DFFF74CFF641CE4B2AC42F8D3A3
:103CA000BDE870400120FFF7BDBF70B506460D4668
:103CB0000020FFF7B7FFA020FFF73AFF002404E041
:103CC000305DFFF735FF641CE4B2AC42F8D3BDE8C9
:103CD00070400120FFF7A6BF2DED068BFFF77CFE9D
:103CE000664C654EDFF898B1664D4FF0FF3741F2F4
:103CF000873840F6080A04F18809206C401C2064CB
:103D000032282AD1002020645F4894F854100170B2
:103D10004178491C41708178491C8170C178491CE7
:103D2000C170FFF723FF052817D2DFE800F0030773
:103D30000B0F13003068401C30600EE07068401CB0
:103D400070600AE0B068401CB06006E0F068401C9B
:103D5000F06002E03069401C3061FFF7AFFE0128DF
:103D600079D129786A7807EB0120131840468342FD
:103D700004D802EB0121514500D0A165A978EA7869
:103D800007EB01231344834204D802EB0121514580
:103D900000D0E16529796A7907EB01231344834256
:103DA00004D802EB0121514500D06167A979EA7975
:103DB00007EB01231344434504D802EB012050458F
:103DC00000D0A066606EFCF7D8FC9FED30AB53ECE2
:103DD0001A2BFCF7E0FB41EC180BE06DFCF7CDFC77
:103DE0009FED2C9B53EC192BFCF7D5FB53EC182BB8
:103DF000FCF72AFBFCF7EDFC20666066206FFCF701
:103E0000BCFC53EC1A2BFCF7C6FB41EC180BA06E64
:103E1000FCF7B3FC53EC192BFCF7BDFB53EC182B50
:103E2000FCF712FBFCF7D5FCE0662067287A4946D0
:103E3000C0F3801289F80020C0F3401289F80120F5
:103E4000C0F3001289F80220C0F3C00389F80330E0
:103E500012B1022302E00AE013B101238BF8003013
:103E6000C0F341020A7100F0010089F805000A2040
:103E700004F05AFE41E70000D40200200C000020AC
:103E800092010020815300207853002033333333D4
:103E90003333E33F9A9999999999D93F70B50024A2
:103EA0000021204600F01CF90025002000F03AF91E
:103EB0006D1CEDB2802DF8D3641CE4B2082CEFD356
:103EC00070BD000010B5012211020A48FDF73BFC4D
:103ED0000120401C9628FCD3012251020648FDF720
:103EE00032FC0220401C9628FCD3BDE81040012083
:103EF000FDF712BB00000240000802402DE9F04728
:103F0000DFF880A0204E074600244FF080084FF4D1
:103F100000794FF4807500BF28FA04F23A40494610
:103F20005046FDF710FC0220401C9628FCD30122CD
:103F300029463046FDF707FC0220401C9628FCD39A
:103F4000002229463046FDF7FEFB0220401C962841
:103F5000FCD3641CE4B2082CDED30122294630468F
:103F6000FDF7F1FB0222521C962AFCD300222946BF
:103F70003046FDF7E8FB0220401C9628FCD3BDE844
:103F8000F087000000080240000002402DE9F041E7
:103F90000122144D540221462846FDF7D4FB01208E
:103FA000401C9628FCD301220F4F1602314638469A
:103FB000FDF7C9FB0220401C9628FCD300222146B5
:103FC0002846FDF7C0FB0220401C9628FCD30022A7
:103FD00031463846FDF7B7FB0220401C9628FCD33B
:103FE000BDE8F081000802400000024070B50F4DAE
:103FF0004FF40074002221462846FDF7A4FB01225D
:10400000521C962AFCD3012211020948FDF79BFBA2
:104010000222521C962AFCD3012221462846FDF793
:1040200092FB0220401C9628FCD370BD0008024081
:104030000000024010B5002141F288320020401CEF
:104040009042FCD3491C9142F8D3FFF73BFFAE20CE
:1040500000F057F8D52000F054F8802000F051F817
:10406000A82000F04EF83F2000F04BF8D32000F0DD
:1040700048F8002000F045F8402000F042F8A12068
:1040800000F03FF8C82000F03CF8DA2000F039F8E2
:10409000122000F036F8812000F033F8CF2000F035
:1040A00030F8D92000F02DF8F12000F02AF8DB20BC
:1040B00000F027F8302000F024F8A42000F021F8C8
:1040C000A62000F01EF88D2000F01BF8142000F050
:1040D00018F8AF2000F015F8BDE81040FFF7DEBE7D
:1040E00010B50C4640F0B00000F00BF8102040EA8C
:1040F000141000F006F804F00F00BDE81040AFF314
:10410000008010B50446FFF741FF7820FFF7F6FE68
:104110000020FFF7F3FE2046FFF7F0FEBDE8104059
:10412000FFF764BF10B50446FFF730FF7820FFF7B4
:10413000E5FE4020FFF7E2FE2046FFF7DFFEBDE888
:104140001040FFF753BF000030B58BB00024069439
:104150000794089401252DA32E4A2FA131A009947C
:1041600001F0AEF906A8CDE904400120CDE9000434
:1041700003020294039425A2264927A0FEF738FEE5
:1041800028B135A001F09CF90BB0284630BD3BA00A
:10419000079901F095F9079881B20698FDF7D4F8D0
:1041A00040A001F08DF94FF47A70FCF7D7FF044678
:1041B00045A001F085F9002C1CD021784AA001F01F
:1041C0007FF92046FFF7F0F9022813D12046FFF7C8
:1041D00001F9062818D2DFE800F003080A111315C8
:1041E0004DA001F06DF9002504E050A000E056A0BC
:1041F00001F066F906A8FEF773FDC5E75BA0F7E7D7
:1042000062A0F5E76AA0F3E774A0F1E750656E617C
:1042100000000000C49A00086E45344841724B33D8
:104220004E3300004F6E654E65745F4465764C6991
:104230006E6B0D0A50524F49443A2025732C095495
:104240004F4B454E3A2025732C2044455649443A5D
:1042500025730D0A000000005741524E3A094D5196
:1042600054545F5061636B6574436F6E6E65637425
:10427000204661696C65640D0A000000B2BDD6E895
:1042800031A3BA4D515454C1ACBDD3B0FCB4B4BD8C
:10429000A8B3C9B9A6A3ACB0FCB3A4B6C8A3BA2549
:1042A000640D0A00B2BDD6E832A3BA455350383285
:1042B00036365F53656E644461746120B5F7D3C3CD
:1042C000CDEAB3C90D0A0000B2BDD6E833A3BAB532
:1042D000C8B4FD3173BDD3CAD5C6BDCCA8CFECD30D
:1042E000A62E2E2E0D0A0000B2BDD6E834A3BAB316
:1042F000C9B9A6CAD5B5BDC6BDCCA8CFECD3A6CA90
:10430000FDBEDDA3ACCAD7D7D6BDDAA3BA307825B7
:104310003032580D0A000000546970733A09C1AC7C
:10432000BDD3B3C9B9A60D0A000000005741524ED3
:104330003A09C1ACBDD3CAA7B0DCA3BAD0ADD2E9AB
:10434000B4EDCEF30D0A00005741524E3A09C1AC0C
:10435000BDD3CAA7B0DCA3BAB7C7B7A8B5C4636C4E
:1043600069656E7469640D0A000000005741524E81
:104370003A09C1ACBDD3CAA7B0DCA3BAB7FECEF12F
:10438000C6F7CAA7B0DC0D0A000000005741524E24
:104390003A09C1ACBDD3CAA7B0DCA3BAD3C3BBA78B
:1043A000C3FBBBF2C3DCC2EBB4EDCEF30D0A0000DD
:1043B0005741524E3A09C1ACBDD3CAA7B0DCA3BA2B
:1043C000B7C7B7A8C1B4BDD328B1C8C8E7746F6B6D
:1043D000656EB7C7B7A8290D0A0000004552523ACA
:1043E00009C1ACBDD3CAA7B0DCA3BACEB4D6AAB4B7
:1043F000EDCEF30D0A00000070B588B0002406462B
:104400000D4604940594069408460794FBF7F2FFC2
:10441000034604A80121CDE9021000942A46019424
:1044200031460A20FEF716FE002807D1059881B212
:104430000498FCF789FF04A8FEF752FC08B070BD91
:10444000F0B58DB004460020089009900A90ADF8B0
:104450001800079003900490ADF814008DF82C001C
:104460002046FFF7A1F80546C01E664E0D2878D2FB
:10447000DFE800F0297C8393AEC3B4C3BCC3C3C3DD
:10448000070005AB03AA04A92046FEF762FF04005B
:1044900027D1DDE90321BDF814305BA001F010F84D
:1044A000DDE9031007AAFEF765FC002856D15FA0DE
:1044B00001F006F8089881B20798FCF745FF07A8B5
:1044C000FEF70EFC4AE04F4A0BA9921C05A88DE8A6
:1044D000070003AB06AA04A92046FEF789FF0400E3
:1044E0000FD0FCF70FFD641C09D00F2D01D0032D58
:1044F00005D1049802F0ECFD039802F0E9FD0DB03F
:10450000F0BDBDF814000090DDE90331BDF81820BE
:104510004CA000F0D5FF039802F002FC054658A11C
:1045200002F0E2FB074658A102F0DEFB044659A167
:10453000384602F0D9FB58B1C26857484FF4807131
:10454000012A0FD0022232705FF00102FDF7FBF862
:104550000CB160697060284602F0A2FBFCF7D2FC47
:10456000C7E734E0012232700022EFE72046FEF771
:10457000E7FF002841D149A03DE02046FEF7F8FFC3
:1045800000283AD14DA000F09BFF07A90A20FEF7B2
:1045900031FE002831D14FA00FE071882046FEF790
:1045A000F3FF002829D151A000F08AFF07A90A20B3
:1045B000FEF7FDFD002820D152A000F081FF0898F1
:1045C00081B20798FCF7C0FE07A8FEF789FB14E04C
:1045D0002046FEF7C1FF80B951A00CE02046FFF74E
:1045E00013F808B154A006E05AA004E02046FFF7F3
:1045F00021F828B15EA000F063FFFCF783FC7EE7A2
:1046000063A0F8E750010020636D6469643A2025D7
:10461000732C207265713A2025732C207265715FAE
:104620006C656E3A2025640D0A00000054697073B1
:104630003A0953656E6420436D64526573700D0AC8
:1046400000000000746F7069633A2025732C207499
:104650006F7069635F6C656E3A2025642C20706111
:10466000796C6F61643A2025732C207061796C6FCE
:1046700061645F6C656E3A2025640D0A00000000DD
:10468000706172616D73000074656D705F666C6F50
:10469000617400004C656400000C02405469707342
:1046A0003A094D515454205075626C697368205317
:1046B000656E64204F4B0D0A000000005469707352
:1046C0003A09526576205075626C69736852656369
:1046D0000D0A0000546970733A0953656E642050E6
:1046E00075626C69736852656C0D0A005469707369
:1046F0003A09526576205075626C69736852656C30
:104700000D0A0000546970733A0953656E642050B5
:1047100075626C697368436F6D700D0A000000006C
:10472000546970733A09526576205075626C6973EA
:1047300068436F6D700D0A00546970733A094D51EA
:1047400054542053756273637269626520457272B6
:104750000D0A0000546970733A094D5154542053A6
:104760007562736372696265204F4B0D0A00000029
:10477000546970733A094D51545420556E53756203
:10478000736372696265204572720D0A0000000051
:10479000546970733A094D51545420556E537562E3
:1047A000736372696265204F4B0D0A0070B586B065
:1047B00000240D460646019402940394049406E0F6
:1047C00056F824100DA000F07BFE641CE4B2AC424D
:1047D000F6D301A800902B46324600211420FEF7A4
:1047E0002CFD002807D1029881B20198FCF7ACFD9E
:1047F00001A8FEF775FA06B070BD0000537562732C
:10480000637269626520546F7069633A2025730D85
:104810000A00000070B5002400F02CF800F032F817
:10482000042000F0D9F800F01DF8042000F0D4F8BE
:104830004FF400750A4E01E0641CA4B229463046CC
:10484000FCF774FF08B1642CF6D3642C06D000F09A
:1048500011F8042000F0C0F8012070BD002070BDE8
:1048600000040240012211020148FCF76CBF000065
:104870000004024000224FF480710148FCF763BF3E
:104880000004024000B587B014216846FBF78BFD99
:104890000B480021026842F002020260006800F04A
:1048A000020005904FF40070CDE900010120CDE930
:1048B000020169460348FCF741FE07B000BD000055
:1048C000303802400004024030B587B014216846F9
:1048D000FBF769FD0E480021026842F00202026007
:1048E00000684FF4007400F0020005901120CDE93B
:1048F00000400120CDE90201064D69462846FCF73B
:104900001DFE012221462846FCF71DFF07B030BDE1
:10491000303802400004024030B587B014216846A8
:10492000FBF741FD0E480021026842F002020260DE
:1049300000684FF4007400F0020005901120CDE9EA
:1049400000400120CDE90201064D69462846FCF7EA
:10495000F5FD002221462846FCF7F5FE07B030BDE4
:10496000303802400004024010B5FFF783FF0320F7
:1049700000F032F8FFF7D0FF032000F02DF8FFF72A
:1049800071FF032000F028F8FFF774FF032000F008
:1049900023F8FFF777FFBDE81040032000F01CB8B4
:1049A00010B5FFF767FF042000F016F8FFF78CFF43
:1049B000042000F011F8FFF755FF042000F00CF878
:1049C000FFF758FF042000F007F8FFF7A5FFBDE848
:1049D00010400420AFF3008000B5801E020004D018
:1049E0000120FCF78CFA521EFAD100BD2DE9F047E8
:1049F00081460D481F461646058888460024F2B2B7
:104A00003B464146484600F047F800280AD0002DB2
:104A100008D02146641CE4B2042903D82846FCF7D8
:104A20007BFDECE7BDE8F087740100202DE9F05F25
:104A30008A4618491E469346B1F8009000254FEA71
:104A4000400854460BF0FF0700F0EEF808F0FF00B6
:104A500000F042F948B9204600F03EF928B9002498
:104A600011E0305D00F038F958B1B9F1000F0FD006
:104A700029466D1CEDB204290AD84846FCF74CFDC6
:104A8000DFE7641CE4B2BC42EBD300F005F9002080
:104A9000BDE8F09F740100202DE9F0411D46144649
:104AA0000F46064600F0C0F87006000E00F014F93C
:104AB00000281CD1384600F00FF9002817D100F06B
:104AC000B3F8012000EB4600C0B200F005F9002861
:104AD0000DD107E0012C0CD000F05AF8641E05F847
:104AE000010BE4B2002CF5D100F0D6F80020BDE8AF
:104AF000F08100F001F8F1E72DE9F041234C4FF48B
:104B00000078012241462046FCF71DFEA715002231
:104B100039462046FCF717FE00252E46012239466D
:104B20002046FCF710FE1220401EFDD16806050E3F
:104B300041462046FCF7FAFD08B145F00105002288
:104B400039462046FCF7FFFD1220401EFDD1761CA1
:104B5000F6B2082EE2D3012241462046FCF7F3FDCF
:104B60001220401EFDD1012239462046FCF7EBFD04
:104B70001220401EFDD1002239462046FCF7E3FDFD
:104B80001220401EFDD12846BDE8F08100040240FD
:104B90002DE9F041234C4FF4007801224146204694
:104BA000FCF7D1FDA715002239462046FCF7CBFDC6
:104BB00000252E46012239462046FCF7C4FD12206E
:104BC000401EFDD16806050E41462046FCF7AEFDAD
:104BD00008B145F00105002239462046FCF7B3FD37
:104BE0001220401EFDD1761CF6B2082EE2D3002220
:104BF00041462046FCF7A7FD1220401EFDD10122B0
:104C000039462046FCF79FFD1220401EFDD10022B0
:104C100039462046FCF797FD1220401EFDD128465C
:104C2000BDE8F081000402402DE9F0410122194E57
:104C3000540221463046FCF786FD1321491EFDD162
:104C40000122150229463046FCF77DFD1222521E34
:104C5000FDD12746214634463046FCF767FDB8B102
:104C6000002239462046FCF76EFD1222521EFDD16D
:104C700029462046FCF767FD1221491EFDD1394621
:104C80002046FCF753FD002800D00220BDE8F0814B
:104C90000120FBE70004024070B50E4D4FF4007494
:104CA000002221462846FCF74EFD1322521EFDD15C
:104CB000012211022846FCF746FD1222521EFDD1A8
:104CC000012221462846FCF73EFD1220401EFDD160
:104CD00070BD0000000402402DE9F041184E054669
:104CE0004FF48077002239463046FCF72CFD002433
:104CF0004FF40078280601D5012200E00022414649
:104D00003046FCF720FD6806050E1220401EFDD13E
:104D1000012239463046FCF716FD1220401EFDD117
:104D2000002239463046FCF70EFD1220401EFDD110
:104D3000641CE4B2082CDDD3BDE8F04100F002B8F9
:104D4000000402402DE9F0410122154D56020024D5
:104D500031462846FCF7F7FC1322521EFDD10122F2
:104D6000170239462846FCF7EEFC1220401EFDD102
:104D700008E0641CE4B2FA2C04D9FFF78DFF02208E
:104D8000BDE8F08131462846FCF7D0FC0028F0D180
:104D9000002239462846FCF7D6FC0020F0E7000048
:104DA00000040240064D4FF400744FF4FA76214699
:104DB0002846FCF7C0FC304603F0B6FEF7E70000DB
:104DC000000C024010B5FFF7A7FD0420FFF704FE1A
:104DD000FFF748FD0420FFF7FFFDFFF775FDBDE875
:104DE00010400420FFF7F8BD10B54FF0E020006937
:104DF00004F0E6FA012803D0BDE8104003F0F4BF48
:104E000010BD000030B593B030216846FBF7CBFAF7
:104E100014210CA8FBF7C7FA1D480025016841F0D2
:104E200080510160006800F08050119019480168BD
:104E300041F4804101600068022400F48040119038
:104E40000120039010200490009406940820CDE9DE
:104E50000750A820CDE9090404200B906846FCF710
:104E600053FE08B172B6FEE70CA90F2081E83100AD
:104E70004FF4A0500F904FF48050109005210CA8D3
:104E8000FCF736FD002801D072B6FEE713B030BD46
:104E900040380240007000400248016841F470014F
:104EA0000160704788ED00E00148FDF726B9000079
:104EB000E80200200148FDF720B9000008040020A6
:104EC000F0B50268294C2A4D2A4E2B4F2B4B4FF040
:104ED000804CA04209D0604507D0A84205D0B0421E
:104EE00003D0B84201D0984204D122F0700E4A6833
:104EF00042EA0E02A0421BD0604519D0A84217D04A
:104F0000B04215D0B84213D0984211D01C4DA842DF
:104F10000ED01C4DA8420BD01B4DA84208D01B4DF3
:104F2000A84205D01A4DA84202D01A4DA84203D17A
:104F300022F44075CA682A434D6922F080022A4350
:104F400002608A68C2620A688262A04201D0984206
:104F500001D109690163012141610169C90703D0D8
:104F6000016921F001010161F0BD00000000014074
:104F70000004004000080040000C00400004014014
:104F8000004001400044014000480140001800403A
:104F9000001C00400020004010B5846842EA032253
:104FA00024F47F440A432243826010BD826822F0C9
:104FB00070020A4342F007018160704710B5036A2E
:104FC000046A24F001040462846924F0F00444EAD1
:104FD000021423F00A020A438461026210BD10B574
:104FE000036A046A24F010040462846923F0A003B5
:104FF00024F4704444EA023243EA011182610162FE
:1050000010BD00002DED028B82B03C4D9FED3C8A1F
:10501000A5F1800464226946286804F0A3F80128F9
:1050200067D1BDF8000000EE100AF8EE400A9FEDCF
:10503000350A20EE801ADFED340A21EE201A84EDC5
:10504000041ABDF8020001EE100AB8EE411A21EE72
:10505000001A21EE201A84ED051ABDF8040001EEB5
:10506000100AB8EE411A21EE000A20EE200AB5EE31
:10507000C00AF1EE10FA06DB10EE100A234988424E
:1050800001DC84ED060A207828B994ED060A012097
:1050900084ED070A207094ED060AD4ED080A1C4935
:1050A00030EE600A10EE100A884208DD94ED090A1D
:1050B00030EE480A84ED090AE06A401E0CE010EE6A
:1050C000100A1449884208D994ED090A30EE080AFA
:1050D00084ED090AE06A401CE06294ED060AD4ED12
:1050E000090A30EE200A84ED0A0A94ED060A84EDDE
:1050F000080A0A2003F018FD8CE700008C0000204D
:105100000000B44300000038000034430000B44302
:1051100000003443000034C30148FDF7B9B8000073
:105120003003002010B5806B0021C185C184FDF7DC
:10513000ADF810BD01680C3151E8002F22F49072D7
:1051400041E80023002BF5D10168143151E8002F0C
:1051500022F0010241E80023002BF5D1016B012967
:1051600009D101680C3151E8002F22F0100241E80A
:105170000023002BF5D1202180F84210002101638B
:10518000704708B590F84210222901D0022008BDCE
:1051900082684FF480539A4201D1016921B1816A3A
:1051A0009A421BD04AB10AE00268816A5268C2F38F
:1051B00008020A80816A891C08E0026972B10268EB
:1051C000526802F07F020A70816A491C8162C18DB7
:1051D000491E0904090CC18503D01BE0026852680E
:1051E000F1E70168CA6822F02002CA600168CA6853
:1051F00022F48072CA6001684A6922F001024A61A1
:10520000202180F8421000214163026B012A03D063
:10521000FDF758FA002008BD016301680C3151E820
:10522000002F22F0100241E80023002BF5D1016885
:105230000A68D20602D50A6849680091818DFDF797
:1052400024F8E7E770B5044600680169E26821F4D4
:105250004051114301612169A068E2690843616915
:10526000114308432168CA6849F20C639A43024318
:10527000CA6020684169A26921F44071114341610B
:1052800031492068884202D03049884202D1FCF777
:10529000F9FB01E0FCF7E6FBE26900231921642534
:1052A0003226B2F5004F626828D0A0FB0101930FAF
:1052B0009200FAF7E5FF0146B0FBF5F06FF0180237
:1052C000504301EB800006EB0010B0FBF5F000F05E
:1052D000F002B1FBF5F002EB0012B1FBF5F06FF05C
:1052E0001803584301EB800006EB0010B0FBF5F00B
:1052F00000F00F0021681044886070BDA0FB010120
:1053000092185B41FAF7BCFF0146B0FBF5F00201D1
:10531000B1FBF5F06FF01803584301EB800006EB8A
:10532000C000B0FBF5F000F0F80002EB4002B1FB6A
:10533000F5F0584301EB800006EBC000B0FBF5F040
:1053400000F00700D6E70000001001400014014003
:1053500081628285C28500214164222180F8421049
:10536000016921B10168CA6842F48072CA600168AB
:105370004A6942F001024A610068C16841F02001B7
:10538000C160002070472DE9F843984617460D4646
:105390000446089E24E0701C22D0FCF7D9F9A0EB4B
:1053A0000800B0421AD8CEB12068C168490717D5A5
:1053B000802D15D0402D13D00168C94309070FD4A3
:1053C00001680025406800902046FFF7B3FE0820E2
:1053D000606484F840500120BDE8F8830320FBE7B7
:1053E0002068006835EA000004D00020B842D2D01E
:1053F0000020F1E70120F9E70148FCF749BF000070
:10540000780300200148FCF743BF0000C0030020E0
:10541000FEE700002DE9F0410025FFF72BFAFFF72A
:1054200031FA0420FFF7D8FADFF8448000244FF463
:10543000007700BFFFF716FAFBF746FD0026394656
:105440004046FCF773F900B1012646EA4500C5B2B3
:10545000FFF710FAFBF738FD641CE4B2082CE9D31F
:10546000FFF710FA0420FFF7B7FA2846BDE8F081ED
:105470000004024070B5054680260024FFF7FAF9C3
:10548000FBF72EFD2E4202D0FFF71EFA01E0FFF7D8
:1054900043FAFFF7E7F9FBF723FD6806641C050EE6
:1054A000E4B2082CEAD3FFF7E5F90420FFF794FAF9
:1054B000FFF7E8F9BDE870400420FFF78DBA00005F
:1054C0000FB4054B10B503A9044A029801F014F873
:1054D00010BC5DF814FB0000B9700008C401002086
:1054E0000FB4084B10B504A902AA039801F004F800
:1054F000044602A9002001F096FB204610BC5DF88E
:1055000014FB0000276C000803B4019841000098C8
:1055100050EAC12018BF04204A0D18BF40F0010016
:1055200040F2FF72B2EB515F08BF40F00200012869
:1055300008BF052002B070470907090E002804DBE8
:1055400000F1E02080F80014704700F00F0000F137
:10555000E02080F8141D70472DE9F04D2DED040B6F
:105560002DED0E8B96B0DDE92550279CDDF890A03F
:1055700025F0004624F00048BAF1000F14BF0121C5
:10558000002101EB4502FC4953184A1093422AD3EB
:10559000002814BF0123002303EB44030B44F74905
:1055A0008B4220D358EA00019FEDF59B76D0DFF8BF
:1055B000D8B35D4503D1BAF1000F05D188E0BAF147
:1055C000000F08BF002100D0012101EB450111F5BA
:1055D000001F08D8002814BF0121002101EB44015D
:1055E00011F5001F0BD99DED261B9DED240B16B068
:1055F000BDEC0E8B04B0BDE8F04D00F069BE002795
:10560000002DBCBFE149884521DAE1498845A8BFA2
:1056100002271CDAC3451ADCDE4901EB28511429A4
:1056200008DDC1F1340220FA02F101FA02F28242ED
:105630000DD108E058B9C1F1140228FA02F101FABB
:1056400002F2424503D101F00101C1F1020756EA1D
:105650000A0124D1002C22DA002D18BF022F01D01C
:10566000012F0AD0022000F07FFE16B0BDEC0E8B99
:1056700004B0BDE8F04D00F013BE022000F074FE4F
:1056800000F00EFE51EC100B81F0004141EC100BCC
:1056900016B0BDEC0E8B04B0BDE8F08D18E09FEDA8
:1056A000BEAB9FEDBF8B002871D1B848804522D199
:1056B00005F1804010F5801008BFBAF1000F07D047
:1056C000B3450ADC002CA8BF9DED260BE0DA0DE007
:1056D000B0EE490AF0EE690ADAE7002C06DA9DED31
:1056E000260B51EC100B81F000416FE0AE4878447E
:1056F00090ED000BCCE7D8454DD1002C48DA2EB107
:1057000086423AD1BAF1000F42D126E0BAF1000F39
:1057100013D0022000F028FE00F0F6FD8DED020B04
:105720009DED240B8DED000B10EE900A039961F3B3
:105730001E0003909DED020BAAE78DED02AB9DEDDF
:10574000240B1AEE901A10EE900A8DED000B61F307
:105750001E0003909DED020B9AE78DED028B9DEDEF
:10576000240B18EE901A10EE900A8DED000B61F3E9
:105770001E0003909DED020B8AE709DA9DED240BD4
:1057800051EC190B53EC102BFAF777FF1EE020E0D9
:105790009DED240B7CE786421BDAB4F1804F0DD0DF
:1057A000A4F10050B0F1FF5013D1002D11DB9DED9D
:1057B000240B51EC100B03F04CF807E09DED240B8B
:1057C00053EC102B51EC100B00F0C2BC41EC100B51
:1057D0005EE79DED240B51EC100B01F061FCBAF17A
:1057E000000FCDE90E0142D19FED710B46B3A6F13A
:1057F000E040B0F17F600CD05E4538D1002D00DA7A
:10580000A7B3022F0CBF01204FF0FF30FAF7A4FF1F
:10581000DCE7002D01DD002C0DDA002D01DD002C70
:105820001FDB002D16DA002C14DB012F08BF9FEDC3
:10583000620B3FF42DAFB0EE4A0AF0EE6A0A27E79A
:10584000022F18BF002D0CD0012F0AD1002DFFF61A
:105850001FAF06E0002DB8BF002C08DA012F3FF47F
:1058600017AFB0EE480AF0EE680A11E71BE001201E
:1058700000EBE57050EA070115D0791EB0EE498AB9
:10588000F0EE698A084308BF9FED4D8B4E48002516
:10589000804570DD4D494E48884514DDB0420DDB32
:1058A000002C19DB2FE0012000F05EFD16B0BDECEE
:1058B0000E8B04B0BDE8F04D00F016BDB34502DC20
:1058C000002C09DC1FE0864202DA002C1BDA03E020
:1058D0005E452BDD002C16DD022000F045FD00F0BA
:1058E00013FD8DED020B53EC1A2B51EC180BFAF74C
:1058F00052FECDE900010399019861F31E00039067
:105900009DED020BC4E6022000F02EFD00F00CFD20
:1059100010EE901A18EE900A8DED020B8DED008BB3
:1059200061F31E0003909DED020BB1E69DED0E0BA1
:1059300053EC192B51EC100BFAF727FE9FED260BB9
:10594000CDE9080153EC102B9DED080B51EC100B29
:10595000FAF721FE9FED221B53EC112BFAF718FEEC
:105960009DED081B53EC112BFAF715FE9FED1E1B46
:1059700053EC112B3CE08CE0FFFF1F00FFFF0F00FA
:10598000000000000000F03F0000F03F0000F07F4A
:105990000000404301FCFFFF000000000000F07F1A
:1059A000000000000000000036430000000000007E
:1059B0000000000000000080000000000000F0FF78
:1059C000000000000000F0BF0000E0410000F043D4
:1059D000FFFFEF3F00000000000000000000D03F8C
:1059E000555555555555D53F000000000000E03F86
:1059F000FAF7CEFD9DED080B41EC1A0B53EC102B82
:105A000051EC100BFAF7C7FD53EC1A2BFAF7C3FD54
:105A100041EC1A0B9FEDFE0B53EC102B9DED080B88
:105A200051EC100BFAF7B7FD41EC1B0B9FEDFA0B95
:105A300051EC1A0B53EC102BFAF7ADFD41EC1A0B9D
:105A40009FEDF70B53EC102B9DED080B51EC100B59
:105A5000FAF7A1FD53EC1A2BFAF797FD41EC1A0B5C
:105A600051EC1B0B53EC1A2BFAF7EEFC0690CDE928
:105A700006519DED060B53EC1B2B51EC100BFAF766
:105A800084FD53EC1A2BFAF783FD41EC100B00F068
:105A9000A1B90020B6F5801F0EDA9FEDE30B53ECA1
:105AA000102B9DED0E0B51EC100BFAF774FDCDE9A8
:105AB0000E016FF034000E4600EB2650A0F2FF37C7
:105AC000C6F31300DA4940F07F6646F0405688423C
:105AD000D8BF002408DDD7498142C8BF012403DCB8
