:020000040800F2
:1000000090A700209D010008433F0008732C0008C2
:10001000413F0008E50D00087D5700080000000082
:10002000000000000000000000000000014C00087B
:10003000E70D000800000000934A0008F150000896
:10004000B7010008B7010008B7010008B7010008B0
:10005000B7010008B7010008B7010008B7010008A0
:10006000B7010008B7010008B7010008B701000890
:10007000B7010008B7010008B7010008B701000880
:10008000B7010008B7010008B7010008B701000870
:10009000B7010008B7010008B7010008B701000860
:1000A000B7010008B7010008B7010008B701000850
:1000B00095510008B7010008B7010008B701000812
:1000C000B7010008B7010008B7010008B701000830
:1000D000B7010008B701000865570008715700080C
:1000E000B7010008B7010008B7010008B701000810
:1000F000B7010008B7010008B7010008B701000800
:10010000B7010008B7010008B7010008B7010008EF
:10011000B701000885540008B7010008B7010008BE
:10012000B7010008B7010008B7010008B7010008CF
:10013000B7010008B7010008B7010008B7010008BF
:10014000B7010008B7010008B7010008B7010008AF
:10015000B7010008B7010008B7010008B70100089F
:10016000B7010008B7010008B7010008B70100088F
:10017000B7010008B7010008B7010008000000003F
:10018000B7010008B7010008DFF80CD000F01AFC36
:10019000004800479571000890A700200648804756
:1001A00006480047FEE7FEE7FEE7FEE7FEE7FEE75C
:1001B000FEE7FEE7FEE7FEE785510008890100083B
:1001C0002DE9F05F0546002092469B46884606468C
:1001D000814640241BE0284641464746224600F01F
:1001E0000CFB53465A46C01A914110D3114618468B
:1001F000224600F0F3FA2D1A67EB01084F4622461B
:100200000120002100F0EAFA17EB00094E41201E00
:10021000A4F10104DFDC484631462A464346BDE8E6
:10022000F09F2DE9F0410024061B254671F10006E0
:1002300005DA01240027D0EB070067EB0101161E49
:1002400073F1000605DA0027D2EB0702012567EB00
:100250000303FFF7B5FF86460E4617469C46AC42A1
:1002600004D00025D0EB050E65EB010624B100207B
:10027000D2EB000760EB030C704631463A4663460A
:10028000BDE8F081A0F14101192900D82030704764
:1002900040EA01039B0703D009E008C9121F08C008
:1002A000042AFAD203E011F8013B00F8013B521E88
:1002B000F9D27047D2B201E000F8012B491EFBD2FF
:1002C00070470022F6E710B513460A460446194661
:1002D000FFF7F0FF204610BD30B505462A460B4615
:1002E00012F8010B13F8014B08B1A042F8D01CB171
:1002F000002802D06D1CF1E7284630BDCAB2401E6E
:1003000010F8011F8A4202D00029F9D1002070475D
:10031000421C10F8011B0029FBD1801A704710B550
:10032000044600E0401C0378002BFBD100E0401C99
:10033000521E04D311F8013B0370002BF7D10021AA
:100340000170204610BD30B505460020034600E090
:100350005B1C934205D2EC5CC85C201A01D1002CD6
:10036000F6D130BD2DE9FE4F804681EA0300C00F73
:100370000C46009021F0004123F00045B8EB02004C
:10038000A94105D24046214690461C460B460246EE
:1003900023F00040104347D0270DC7F30A00C3F3F2
:1003A0000A510290401A019040286BDAC3F31300FF
:1003B00040F4801B0098924620B10023D2EB030A40
:1003C00063EB0B0B01985946C0F14002504600F018
:1003D00005FA06460D4650465946019A00F01DFAA8
:1003E00010EB08006141002487EA115284EAE773A8
:1003F0001A4340D0009A62B3019A012A4FEA075289
:1004000015DC001B61EB02014FF0004202EA0752CB
:10041000CDE90042001C41F5801132462B4600F028
:1004200054FA03B0BDE8F08F40462146F9E7001BBF
:1004300061EB0201001C41F5801300185B4120189C
:10044000A2F5001747EB030140EAD570B6196D41DC
:1004500011E06D084FEA360645EAC0754FEA0752CB
:10046000001B61EB0201001C41F5801149084FEAB5
:1004700030000019514132462B4603B0BDE8F04F21
:1004800000F014BA0098012240000023D0EB0202D1
:1004900063EBE073009821464FEAE074B8EB00008C
:1004A00061EB0401E9E783F000435BE781F0004181
:1004B00058E72DE9FE4F81EA030404F0004421F0DF
:1004C000004100944FF0000B23F0004350EA010478
:1004D0005ED052EA03045BD0C3F30A54C1F30A5559
:1004E0002C44A4F2F3340194A0FB0254C1F3130191
:1004F00041F48011C3F3130343F4801301FB02445E
:1005000000FB034E840A970A44EA815447EA835762
:10051000A4FB076802958D0A05FB07854FEA932C1B
:1005200004FB0C542705029D4FEA065847EA16378C
:10053000B5EB08056EEB070C870E920E47EA8117A4
:1005400042EA8312A7FB0201B6EB0B0164EB000445
:100550002B0D43EA0C335E1844EB1C50DA4651462F
:10056000E7FB0201C5F313044FEA0B3343EA1453CC
:100570004FEA0432019C43EA0603A4F10C040294FE
:10058000009CCDE900B400F0A0F903B0BDE8F08F05
:1005900000200146F9E72DE9F04D81EA030404F05B
:1005A000004B21F0004514464FF0000A23F00041B3
:1005B00050EA050220D054EA01021DD0C5F30A57C3
:1005C0000246C5F31303C1F31300C1F30A5640F406
:1005D000801543F48013A7EB0608101BD64608F2DB
:1005E000FD3873EB050002D308F1010801E0921811
:1005F0005B41B8F1000F03DA00200146BDE8F08D41
:1006000000204FF48011064684460EE0171B73EB62
:10061000050705D3121B63EB050306434CEA010CE7
:1006200049084FEA300092185B4150EA0107EDD1CA
:1006300052EA030012D082EA040083EA050108436B
:1006400005D0101BAB4106D20122002306E0002298
:100650004FF0004302E06FF0010253101AEB060066
:100660004CEB085110EB0A0041EB0B01BDE8F04DDB
:1006700000F01CB90EB5C10F80EAE0700844CA074B
:10068000002140F233438DE80E000A460B4600F08D
:100690001CF903B000BD0EB540F2334102910021B8
:1006A000CDE900110A460B4600F00FF903B000BD7A
:1006B00070B5C1F30A5201F000450024C1F31301E3
:1006C00040F2FF3341F480119A4201DA002070BDFC
:1006D00040F233439A42A2F2334203DC524200F02A
:1006E0008CF800E090402C43F1D0404270BDC1F343
:1006F0000A5210B5C1F3130140F2FF3341F48011E7
:100700009A4201DA002010BD40F233439A42A2F22D
:10071000334203DC524200F070F810BD904010BD2F
:1007200000F0004230F000400AD0C10D01F56071C8
:10073000C0F3160042EA0151C20840071143704756
:10074000002001467047000030B5041E71F100041E
:1007500004DB4FF00044404264EB0101141E73F1CE
:10076000000405DB1C464FF00043524263EB0403D8
:10077000994208BF904230BD01F0004330B421F0EF
:10078000004150EA010206D00A0DA2F56072C1F3E1
:100790001301002A02DC30BC00207047440F44EAF9
:1007A000C104C100E01830BC00EBC25000F047B8F3
:1007B00030B50B46014600202022012409E021FA31
:1007C00002F59D4205D303FA02F5491B04FA02F52E
:1007D0002844151EA2F10102F1DC30BD202A04DB01
:1007E000203A00FA02F1002070479140C2F1200344
:1007F00020FA03F3194390407047202A04DB203A83
:1008000021FA02F00021704721FA02F3D040C2F130
:1008100020029140084319467047202A06DBCB1777
:10082000203A41FA02F043EAE07306E041FA02F3AB
:10083000D040C2F120029140084319467047002978
:10084000A8BF7047401C490008BF20F00100704756
:1008500010B4B0FA80FC00FA0CF050EA010404BFB6
:1008600010BC704749B1CCF1200421FA04F411FA0C
:100870000CF118BF012121430843A3EB0C01CB1D50
:100880004FEA00614FEA102042BF002010BC7047C1
:1008900000EBC35010440029A4BF10BC7047401C9B
:1008A000490008BF20F0010010BC704710B5141EAD
:1008B00073F1000408DA401C41F1000192185B4119
:1008C0001A4301D120F0010010BD2DE9F04D9246F0
:1008D0009B4611B1B1FA81F202E0B0FA80F2203207
:1008E0009046FFF77BFF04460F4640EA0A0041EAC4
:1008F0000B0153465A46084313D0114653EA0100F0
:1009000019D0C8F140025046FFF777FF05460E4662
:10091000504659464246FFF761FF084305D0012083
:1009200004E020463946BDE8F08D0020054346EA44
:10093000E0762C4337430A986305E40AA0EB0800ED
:100940000022FD0A44EA47540A3002D5002001463D
:10095000E9E7010510196941DDE908450019694118
:10096000BDE8F04DA2E770B521F0004303430CD081
:10097000C1F30A550024D5EB040564EB0403D61734
:10098000AD1AB34102DB0020014670BD201841EBD7
:10099000025170BDC1F30A52C1F3130140F2FF339B
:1009A00041F480119A4202DA00200146704740F279
:1009B00033439A42A2F2334202DC5242FFF71DBF98
:1009C000FFF70CBF064C074D06E0E06840F001035E
:1009D00094E8070098471034AC42F6D3FFF7D8FBF1
:1009E0001C8100083C8100082DE9F04D00231A46C7
:1009F0001B1A8A4103DB00200146BDE8F08DC1F3DC
:100A00000A52C1F3130141F480154FF0000BD107D6
:100A100002D100186D41521E0027044640F2FF111A
:100A2000384601EB620A3E468046024600204FF4FB
:100A30008011FFF7E2FEC2197141BB1846EB0100BD
:100A4000B4EB030C75EB000C04D3E41A65EB000562
:100A500017460E46241908F101006D4180463428DE
:100A6000E3DDF91946EB0600091BA84103D24FF05C
:100A7000FF32134601E0002213461BEB070046EB52
:100A80000A51BDE8F04DFFF711BF30B58C1810F8D2
:100A9000012B12F00F0301D110F8013B120906D10E
:100AA00010F8012B03E010F8015B01F8015B5B1EFD
:100AB000F9D101E001F8013B521EFBD1A142E6D37E
:100AC000002030BD2DE9F05F554C83465549A069A3
:100AD0004FF0000AC217411842F1FF30A1FB01326A
:100AE00000FB012201FB0028B4F91020A3FB0257F0
:100AF000D61708FB027203FB0629B4F90E20A2FBED
:100B0000017CD61706FB01C602FB0062520442EAD2
:100B1000D7327F047F1942EB0902B4F90C501AEB6B
:100B2000070942EBC505B4F90A20A3FB027C4FEA92
:100B3000E27608FB02C203FB06224FEA172646EACA
:100B400002664FEA2223B4F90820A2FB01C84FEA4B
:100B5000E27707FB018102FB00104FEA00314FEA08
:100B60000C3041EA1C5130184B41001CE18843F520
:100B70000043A0FB017603FB016100FB0A10421059
:100B8000C31752EA030048D0CBF58010C117CE0737
:100B9000C10746EA5006B1EB090166EB050640F6CF
:100BA0003545A1FB050C06FB05C5002701FB0751D8
:100BB000FFF737FBB4F91650420B42EAC142A5FBDE
:100BC000027CEE1706FB02C64B1305FB0365A7FB71
:100BD000026C05FB02C207FB0323720E42EAC3123A
:100BE0005D16B4F91430A3FB007CDE1706FB00C6CB
:100BF00003FB0166FB0C801843EA46336941C018C9
:100C000041EBE6414FEA016242EA1021B4F91200D9
:100C10004FEA00100818BDE8F09F0020FBE7000035
:100C200094010020000CFEFF2DE9FC4190460F4688
:100C300006466B460622F721772004F025F89DF83A
:100C400000009DF80110000340EA01109DF8021019
:100C5000404C40EA1115404A65609DF803009DF83C
:100C60000410000340EA01109DF8051040EA11103D
:100C7000A0601188C310A3EB4103C1EB2010B2F9AF
:100C800002C04043B2F9041003FB0CF30013DB1263
:100C9000484303EBA030906100EB800080300012ED
:100CA000FFF7E8FC9FED2D1B53EC112BFFF773FCB6
:100CB000FFF762FDE0602846FFF704FFFFF7EBFC5B
:100CC0009FED281B53EC112BFFF765FCFFF754FD3C
:100CD0002061314604F1100006F0FEFF94ED030A96
:100CE00087ED000A96ED000AB5EEC00AF1EE10FAA3
:100CF00026DD9FED1E1AC1EE000A10EE900AFFF7E6
:100D00000FFD41EC100B9FED1A1B04F0DDFD9FED74
:100D10001A1B51EC100B53EC112BFFF7C4FB9FED8A
:100D2000181B53EC112BFFF7C4FB9FED171B53EC63
:100D3000112BFFF730FCFFF71FFD00EE100A01E05A
:100D40009FED130ADFED130A30EE200A88ED000A4A
:100D5000BDE8FC810C000020940100200000000090
:100D600000005940000000000000D940CDEC7D4457
:100D700028610C878A5AC83F000000000000F03F3D
:100D80000000006066A2724000000080BE9F7A3FB3
:100D900000000000008018431FB503AB0122D021E2
:100DA000772003F071FF0E4B18228821772003F083
:100DB0006BFFB3208DF800006B460122F4217720F1
:100DC00003F082FF14208DF800006B460122F5210C
:100DD000772003F079FF9DF80C0004B010BD0000EF
:100DE00094010020FEE7704700B5012000F017F8DD
:100DF000012000F014F801205DF804EB00F00FB8BA
:100E000000B5012000F00BF8012000F008F80120E7
:100E100000F005F801205DF804EBAFF3008002E07C
:100E20000021491CFDD0401EFAD2704710B54FF486
:100E300000710448FFF745FA03480021C180018191
:100E400010BD0000B00100203800002070B5002463
:100E5000254608210FA004F0E9FC18A119A000F014
:100E6000BFF990B1641CC4F1080122A004F0DEFCBB
:100E7000642000F06FFA082CEFDB002D08D1082168
:100E800027A0BDE8704004F0D1BC611C32A0F8E797
:100E900070BD0000BFAACABCC1ACBDD34F6E654EC9
:100EA0006574B7FECEF1C6F7A3ACD7EEB4F3D6D8CF
:100EB000CAD42564B4CE2E2E2E0D0A00434F4E4EBA
:100EC0004543540041542B43495053544152543DDF
:100ED00022544350222C226D717474732E68656302
:100EE0006C6F7564732E636F6D222C313838330D3F
:100EF0000A0000004F6E654E6574B7FECEF1C6F76E
:100F0000C1ACBDD3CAA7B0DCA3ACCAA3D3E0D6D8CA
:100F1000CAD4B4CECAFDA3BA25640D0A00000000ED
:100F2000B4EDCEF3A3BA4F6E654E6574B7FECEF145
:100F3000C6F7C1ACBDD3D6D8CAD42564B4CEBEF9E9
:100F4000CAA7B0DCA3ACD2D1CDCBB3F6D6D8CAD425
:100F5000A3A10D0A000000004F6E654E6574B7FE38
:100F6000CEF1C6F7C1ACBDD3B3C9B9A6A3A1A3A89E
:100F7000D6D8CAD4B4CECAFDA3BA2564A3A90D0A93
:100F80000000000070B5002425460A2111A004F0DD
:100F90004DFC18A119A000F023F990B1641CC4F114
:100FA0000A011FA004F042FC642000F0D3F90A2CCF
:100FB000EFDB002D0CD1BDE870400A2121A004F028
:100FC00035BC611C2BA004F031FC33490120C86002
:100FD00070BD0000BFAACABCC1ACBDD35769466989
:100FE000A3ACD7EEB4F3D6D8CAD42564B4CE2E2E93
:100FF0002E0D0A00474F54204950000041542B4306
:10100000574A41503D22434D43432D524442222CE6
:10101000223133353136333033393034220D0A0042
:1010200057694669C1ACBDD3CAA7B0DCA3ACCAA39B
:10103000D3E0D6D8CAD4B4CECAFDA3BA25640D0A6B
:1010400000000000B4EDCEF3A3BA57694669C1AC05
:10105000BDD3D6D8CAD42564B4CEBEF9CAA7B0DCF5
:10106000A3ACD2D1CDCBB3F6D6D8CAD4A3A10D0AA6
:101070000000000057694669C1ACBDD3B3C9B9A629
:10108000A3A1A3A8D6D8CAD4B4CECAFDA3BA256456
:10109000A3A90D0A000000003800002010B5044686
:1010A00000F0EAF858B90AA10B48FFF715F930B17A
:1010B0003A21FFF723F9002800D0401C10BD012081
:1010C00000F048F9641E2404240CE9D1002010BD6E
:1010D0004950442C00000000B001002010B5FFF77B
:1010E000A5FE1DA004F0A2FB02E0642000F032F98E
:1010F0001BA11CA000F074F80028F6D11BA004F07E
:1011000095FB02E0642000F025F915A11AA000F07B
:1011100067F80028F6D11CA004F088FB02E06420E8
:1011200000F018F90EA11CA000F05AF80028F6D122
:101130001DA004F07BFBFFF725FF1E48C0680128B7
:1011400009D11DA004F072FBFFF780FEBDE810403E
:101150001DA004F06BBB10BD312E2041540D0A00C0
:101160004F4B000041540D0A00000000322E204376
:10117000574D4F44450D0A0041542B43574D4F44A2
:10118000453D310D0A000000332E2041542B4357BA
:10119000444843500D0A000041542B4357444843F0
:1011A000503D312C310D0A00342E2043574A415016
:1011B0000D0A000038000020352E204349505354BA
:1011C0004152540D0A000000362E2045535038324B
:1011D000363620496E6974204F4B0D0A000000001E
:1011E00070B50D4606464624FFF792F882B20A23F0
:1011F00031460C4801F0ECFC0EE000F03DF840B93F
:1012000029460948FFF768F818B1FFF70FFE0020DC
:1012100070BD072000F09EF8641EE4B2EDD20120FC
:1012200070BD000048070020B001002030B589B033
:101230000C460546FFF7FAFD224609A1684604F070
:1012400005FB0BA16846FFF7CBFF002805D16423FF
:1012500022462946074801F0BBFC09B030BD00001A
:1012600041542B43495053454E443D25640D0A00DB
:101270003E000000480700200649C88828B10A89B6
:10128000904204D10020C880704701207047088137
:10129000FBE700003800002072B6FEE72DE9F041C0
:1012A0000446876D00F062F9054694F83500002683
:1012B000022806D08020606584F834600120BDE8F3
:1012C000F0812068016821F0160101602068416901
:1012D00021F080014161206C08B9A06C20B1206828
:1012E000016821F0080101602068016821F0010116
:1012F00001600CE000F03AF9401B052807D92020D6
:101300006065032084F8350084F83460D7E72068EE
:101310000068C007EED194F85C103F208840B860A8
:10132000012084F8350084F834600020C7E790F885
:101330003510022903D08021416501207047052125
:1013400080F835100068016821F00101016000207B
:101350007047000070B5044600F008F90546601CAF
:1013600002D004480078044400F000F9401BA04279
:10137000FAD370BD4C0100202DE9F84FDFF89C91A5
:101380000022A9F1040B03274FF00F0C09F1040A06
:10139000ABF1040E01250B6895402B40AB426ED19A
:1013A0000C7904F00304012C01D0022C15D18668BD
:1013B000540007FA04F826EA0806D1F80C8008FA67
:1013C00004F848EA0608C0F808804468AC430D7980
:1013D000C5F300159540254345600C79E443A40707
:1013E00008D0C568540007FA04F6B5438E68A640D5
:1013F0002E43C6600C7904F00304022C11D1D408EA
:1014000000EB8406356A5407E40E0CFA04F825EA6A
:101410000805D1F8108008FA04F848EA0508C6F86B
:1014200020800568540007FA04F6B5430E7906F0EB
:101430000306A6402E4306604C6814F4403F66D075
:10144000374C256845F480452560246822F0030563
:1014500004F480440094334C05EB0408D8F8085891
:101460009407260F0CFA06F4A5432F4CA04201D195
:10147000002424E02D4CA04202D101241FE046E0CC
:101480002B4CA04201D1022419E02A4CA04201D1E8
:10149000032414E0284CA04201D104240FE0274C7F
:1014A000A04201D105240AE0254CA04201D1062426
:1014B00005E0244CA04201D1072400E00824B440F8
:1014C0002C43C8F80848D9F800404D464E689C4364
:1014D000F60200D51C432C60DAF8004055464E68F1
:1014E0009C43B60200D51C432C60DBF800405D46EF
:1014F0004E689C43B60300D51C432C60DEF80040C8
:1015000075464E689C43F60300D51C432C60521C64
:10151000102AFFF43FAFBDE8F88F0000083C0140FF
:101520004438024000300140000002400004024004
:1015300000080240000C024000100240001402406B
:1015400000180240001C02400069084000D0012041
:101550007047426921EA02030A4043EA024181617D
:1015600070470AB1816170470904FBE70148806850
:10157000704700004C010020024881680278114445
:10158000816070474C0100200B4810B5016841F4A0
:1015900000710160016841F480610160016841F4FB
:1015A00080710160032000F06FF80F2000F006F852
:1015B00000F024F8002010BD003C024070B50D4D35
:1015C00004464FF47A712878B1FBF0F00A490968B3
:1015D000B1FBF0F000F002FB48B9102C07D200225A
:1015E0002146501E00F030F800206C6070BD0120D4
:1015F00070BD00004C010020580100200A4808B5C9
:10160000016841F480410160006800F4804000906E
:101610000548001F016841F080510160006800F03A
:101620008050009008BD000044380240002809DBCB
:1016300000F01F02012191404009800000F1E020EC
:10164000C0F8001170470000F0B40E4B1B68C3F3E4
:101650000223C3F10704042C00D904241D1D072D07
:1016600001D2002300E0DB1E012606FA04F56D1E00
:101670000D409D409E40761E164045EA0601F0BC96
:1016800004F010B90CED00E0064A00F00701106804
:101690004FF6FF03184040EA012003490843106059
:1016A000704700000CED00E00000FA052DE9F0475E
:1016B0000D46040065D0DFF81491D9F80000EFB2B0
:1016C00000F00700A84207D289F80070D9F800009E
:1016D00000F00700A84254D120683D4E810712D582
:1016E000400703D5306840F4E050306020780007B0
:1016F00003D5306840F4604030603068A16820F065
:10170000F000084330602078C0072DD03049606871
:101710000839012812D0022813D0032811D00968F3
:10172000890700292DDA316821F003010143316076
:10173000FFF71CFF804641F2883A0EE009688903F2
:10174000EFE709688901ECE7FFF710FFA0EB08015C
:10175000514502D90320BDE8F0873068616800F088
:101760000C00B0EB810FEFD1D9F80010484601F022
:101770000701A94207D90770006800F00700A842D6
:1017800001D00120E7E72078400705D53068E168FF
:1017900020F4E050084330602078000706D5306818
:1017A000216920F4604040EAC100306000F038F860
:1017B0003168084AC1F30311515CC840064908600A
:1017C00006480068FFF7FAFE0020C4E7003C02402C
:1017D000083802406E7F00085801002050010020A8
:1017E0000448054900680968044AC1F38221515C34
:1017F000C840704758010020083802407E7F00082A
:101800000448054900680968044AC1F34231515C43
:10181000C840704758010020083802407E7F000809
:10182000154810B5006810F00C01144813D0144B83
:1018300004290FD008290ED10F4C241F216801F074
:101840003F022168490207D52068C0F38810A0FB39
:10185000030106E0184610BD2168C1F38811A1FB01
:1018600000010023FEF7ACFC2168C1F30141491CD3
:101870004900B0FBF1F010BD083802400024F4002C
:1018800040787D012DE9F84F040075D02078DFF80D
:1018900038A3C007AAF1040548D00AF10400016882
:1018A000C1F38101012908D00068C0F3810002283A
:1018B0000AD1DAF80000400206D52868800335D541
:1018C00060680028E1D031E06068B0F5803F10D05A
:1018D000B0F5A02F286810D020F480302860286848
:1018E00020F4802028606068A0B1FFF73FFE064624
:1018F0000CE0286840F48030F4E740F48020286051
:10190000F7E7FFF733FE801B642871D8286880034F
:10191000F7D50BE0FFF72AFE064604E0FFF726FEA8
:10192000801B6428F1D828688003F7D42078DFF87A
:101930009C9280074FF0000B3DD5A348001D016825
:1019400011F00C0F08D00068C0F3810002280AD102
:10195000DAF80000400206D42868800715D5E06850
:10196000012809D111E0E068B8B10120C9F80000F0
:10197000FFF7FCFD064605E022E1FFF7F7FD801BBF
:101980000228C2D828688007F7D52868216920F086
:10199000F80040EAC10028600DE0C9F800B0FFF788
:1019A000E5FD064604E0FFF7E1FD801B02281FD895
:1019B00028688007F7D42078000722D5824F844812
:1019C0006169703771B101210160FFF7CFFD0646F3
:1019D00004E0FFF7CBFD801B022809D83868800798
:1019E000F7D50EE0C0F800B0FFF7C0FD064605E0F1
:1019F00082E0FFF7BBFD801B02287DD83868800796
:101A0000F7D42078400765D56F484FF000083C3088
:101A10000068C0000BD46C483C30016841F0805134
:101A2000016000684FF0010800F080500090694F9D
:101A30003868C0050FD4386840F480703860FFF70C
:101A400095FD064604E0FFF791FD801B022853D860
:101A50003868C005F7D55C4FA0686C3701280FD0F7
:101A60000528386810D020F001003860386820F070
:101A700004003860A068B0B1FFF778FD06460EE0BC
:101A8000386840F00100F4E740F004003860F7E700
:101A9000FFF76CFD811B41F28830814263D83868C2
:101AA0008007F5D50DE0FFF761FD064606E0FFF77C
:101AB0005DFD811B41F28830814254D8386880072F
:101AC000F5D4B8F1000F05D03F483C30016821F053
:101AD00080510160A069B8B33B49091D0968C1F391
:101AE0008101022946D00228584606D0C9F8600074
:101AF000FFF73CFD044639E035E04F46C9F8600089
:101B0000FFF734FD064604E0FFF730FD801B022896
:101B100029D828688001F7D4D4E907010843A16ACD
:101B20002D4A490802EB0141626A41EA82110843E9
:101B300094F82C1040EA0161CAF8001001203866C0
:101B4000FFF714FD044605E03CE0FFF70FFD001B26
:101B5000022808D828688001F7D533E0FFF706FD92
:101B6000001B022802D90320BDE8F88F28688001F5
:101B7000F4D427E00128F7D0DAF80000E26900F495
:101B8000800191421CD1226A00F03F01914217D19D
:101B900047F6C071626A0140B1EB821F10D1A26AA0
:101BA0004FF0FF3300F4403103EB5202B1EB024F30
:101BB00006D194F82C1000F07060B0EB016F01D0EA
:101BC0000120D1E70020CFE704380240000047425F
:101BD000800E4742007000400000FFFF10B5401E1D
:101BE000B0F1807F01D3012010BD4FF0E02460618F
:101BF0000F21601703F056FE0020A061072020612E
:101C0000002010BD7047704770B590F83C20012A45
:101C100032D0012580F83C50022280F83D20026835
:101C20005368946823F070060B6833435360134B7A
:101C300002689A4214D0B2F1804F11D0104B9A42F0
:101C40000ED0104B9A420BD00F4B9A4208D00F4B3C
:101C50009A4205D00E4B9A4202D00E4B9A4204D1C2
:101C6000496824F080031943916080F83D500021B9
:101C700080F83C10084670BD022070BD0000014095
:101C80000004004000080040000C00400004014037
:101C9000004001400018004010B5040003D094F843
:101CA0003D0010B107E0012010BD002084F83C0089
:101CB000204600F01FF8022084F83D00211D206816
:101CC00003F06EFA012084F8460084F83E0084F8A0
:101CD0003F0084F8400084F8410084F8420084F812
:101CE000430084F8440084F8450084F83D00002057
:101CF00010BD000008B500681649B0F1804F0AD049
:101D0000154A904219D1086840F00200086008683E
:101D100000F002001BE0086840F00100086008685D
:101D2000002200F00100009011461C20FFF78CFCFF
:101D3000BDE808401C20FFF779BC084A904207D153
:101D4000086840F010000860086800F0100000907B
:101D500008BD000040380240000400400010004070
:101D600090F83D10012901D001207047022180F830
:101D70003D100168CA6842F00102CA60006811495A
:101D8000884214D0B0F1804F11D00F4988420ED054
:101D90000E4988420BD00E49884208D00D4988422E
:101DA00005D00D49884202D00C49884204D181688F
:101DB00001F00701062903D0016841F0010101602B
:101DC000002070470000014000040040000800406F
:101DD000000C004000040140004001400018004099
:101DE00070B5044690F83C000025012817D0012664
:101DF00084F83C60022084F83D002068826822F06C
:101E0000770222F47F4282600868502838D00DDCC7
:101E100020284FD005DC90B3102811D14AE00220D1
:101E200070BD302846D040280AD13BE060282FD032
:101E300070280DD0B0F5805F03D0B0F5005F12D0F0
:101E4000012584F83D60002084F83C00284670BDE0
:101E5000CB68D1E90121206803F01BFA2068816872
:101E600041F0770109E0CB68D1E90121206803F056
:101E700010FA2068816841F480418160E1E719E04F
:101E8000CA684968206803F0D9FA5021206806E042
:101E9000CA684968206803F0E2FA6021206803F00C
:101EA00002FACEE7CA684968206803F0C7FA402101
:101EB0002068F4E7226801461046F0E72DE9F0417A
:101EC0000D46040003D094F83D0018B108E001204D
:101ED000BDE8F081002084F83C00204600F040F886
:101EE000022084F83D002068816844F20702914393
:101EF0008160211D206803F053F9206881688269A0
:101F0000066A2B68AF690B4340F203318A4342EA09
:101F10000722A968EF6911434FF6FC429143EA6832
:101F200041EA07210A4329692F6A090141EA073179
:101F300011436A686D6926F0AA0646EA05152A4328
:101F400083602068816154F8460B0262012004F826
:101F50001F09E0752076E0762077A0750020B7E7AE
:101F600030B587B0044614216846FEF7AAF9204927
:101F70001E4D206800241E4A10390223A84216D1A3
:101F8000106840F004001060106800F00400059034
:101F9000086840F0080008600868694600F008001A
:101FA00005904FF440508DE81900124817E0124D8B
:101FB000A84218D1106840F008001060106800F0C6
:101FC00008000590086840F001000860086869464C
:101FD00000F00100059003208DE819000748CDE9C5
:101FE0000343FFF7C9F907B030BD00000008004007
:101FF00040380240000C0240000C0040000002404B
:1020000070B590F83E50044690F83F3090F842206A
:1020100090F84300022621B104290BD0012D16D1DE
:102020000FE0012D13D1012A11D184F83E6084F80C
:10203000426016E0012B0AD1012808D184F83F60E4
:102040000DE0012B03D1012A01D1012801D001208B
:1020500070BD84F83E6084F83F6084F8426084F884
:10206000436091B1042904D001220021206803F0CB
:1020700003F901220421206803F0FEF820680168BA
:1020800041F001010160002070BD012200212068A3
:10209000F2E770472DE9F04104460068C66805691B
:1020A0004FF00007A90713D5B10711D5F91E01613B
:1020B00001202077206880698007204602D0FFF742
:1020C000E8FF04E000F0A6F8204600F038F9277792
:1020D000680716D5700714D521686FF004000861F1
:1020E000022020772068806910F4407F204602D0CB
:1020F000FFF7CFFF04E000F08DF8204600F01FF955
:102100002777280715D5300713D521686FF0080009
:102110000861042020772068C0698007204602D02B
:10212000FFF7B7FF04E000F075F8204600F007F96C
:102130002777E80616D5F00614D521686FF0100051
:102140000861082020772068C06910F4407F20468D
:1021500002D0FFF79EFF04E000F05CF8204600F09C
:10216000EEF82777E80708D0F00706D021686FF06F
:1021700001000861204600F04BF9280608D530061A
:1021800006D521686FF0800008612046FFF73AFD10
:10219000680608D5700606D521686FF04000086112
:1021A000204600F079FAA8060AD5B00608D52168BD
:1021B0006FF0200008612046BDE8F041FFF723BD25
:1021C000BDE8F08110B586B0044614216846FEF7DC
:1021D00078F80D492068884214D10C480021026823
:1021E00042F001020260006800F001000590C0208A
:1021F00000900220CDE90101CDE9031069460448B1
:10220000FFF7BAF806B010BD0004004030380240B5
:1022100000000240704770B5044690F83C0000266C
:102220000D4601280FD0012084F83C006AB1042A31
:102230001DD0082A2FD00C2A3FD00126002084F878
:102240003C00304670BD022070BD206803F034F8B9
:102250002068816941F0080181612068816921F06D
:1022600004018161206881692A69114311E02068B5
:1022700003F052F82068816941F4006181612068AF
:10228000816921F480618161206881692A6941EA5C
:1022900002218161D2E7206803F074F82068C169E7
:1022A00041F00801C1612068C16921F00401C161E8
:1022B0002068C1692A69114311E0206803F096F88B
:1022C0002068C16941F40061C1612068C16921F4DD
:1022D0008061C1612068C1692A6941EA0221C16146
:1022E000ACE710B5040003D094F83D0010B107E04E
:1022F000012010BD002084F83C00204600F01EF8AC
:10230000022084F83D00211D206802F049FF0120D1
:1023100084F8460084F83E0084F83F0084F84000CA
:1023200084F8410084F8420084F8430084F84400B3
:1023300084F8450084F83D00002010BD70477047C8
:1023400010B5044649B104290AD008290BD094F8E5
:10235000410001280AD0012010BD94F83E00F8E7A2
:1023600094F83F00F5E794F84000F2E70220B1B39B
:10237000042938D0082939D084F841000122206886
:1023800002F07AFF1B4920681B4A884201D0904224
:1023900003D1436C43F4004343642068884213D064
:1023A000B0F1804F10D0154988420DD014498842B1
:1023B0000AD01449884207D0904205D01249884279
:1023C00002D01249884204D1816801F00701062930
:1023D00003D0016841F001010160002010BDFFE75A
:1023E00084F83E00CAE784F83F00C7E784F840005D
:1023F000C4E7000000000140000401400004004068
:1024000000080040000C004000400140001800405F
:102410002DE9F04796492DED028B88427ED1954FEC
:10242000954E4FF48071F86A012801D010B105E093
:10243000002200E001223046FFF793F88D4C022283
:10244000E834002520794FF00108012803D0022844
:1024500009D058B10BE06179012901D031B106E012
:10246000C7F8248003E0C7E9092500E07D626178B0
:10247000012901D011B102E0BA6200E0BD624FF45F
:1024800000714FF4006920B1012816D002282AD12A
:1024900018E0A07801280CD001223046FFF761F83F
:1024A000E078012807D0012249463046FFF759F865
:1024B00019E00022F1E70022F6E700223046FFF79C
:1024C00050F8F8E7F86D4FF4FA72401CB0FBF2F3E5
:1024D000F86502FB130030B93046FFF73AF8494679
:1024E0003046FFF736F8B969491C1E20B1FBF0F2FF
:1024F00000FB1210B961E0B9604800680268604BE7
:10250000C2F300123A631A68146844F300147C633F
:10251000446A47F23056B442446A00E03AE002D3DB
:102520004FF6FF76341BBC63526AFA634562186843
:1025300045620A20B1FBF0F24E4C00FB12108034D1
:1025400030B904F043FDA06C012827D0022828D020
:102550004C4B4D4E4FF480619FED4C8AB86A4C4D08
:10256000012821D002285ED0032813D114F83C2F73
:102570001846FEF7F6FF227902213046FEF7F1FFFA
:10258000A06A2968C0F57A704863606AC0F57A70FD
:1025900029688863BDEC028BBDE8F087C7E90A585B
:1025A000F8E7BD62FD62F5E7F86B002800DA40420B
:1025B00000EE100A3748F8EEC00A94ED180AB8EE9B
:1025C000C00A02F0D9F9B86B002800DA404200EEE8
:1025D000100A3048F8EEC00A94ED190A24303C3451
:1025E000B8EEC00A02F0C8F922781846FEF7B9FF23
:1025F000227902213046FEF7B4FF264829682430AC
:1026000090ED070A38EE400ABCEEC00A10EE100A40
:102610004863204890ED070A38EE400ABCEEC00A35
:1026200010EE100AB4E71B48D4ED0A0A97ED070A2A
:10263000483002F0EBF9174C483494ED070AB5EE38
:10264000C00AF1EE10FA01DB002200E001220221B3
:102650003046FEF786FF94ED070A2968B0EEC00AFF
:1026600038EE400ABCEEC00A10EE100A486391E74B
:102670005005002054000020000C0240E00500201E
:1026800028060020001002400004024000007A44A6
:1026900098050020C40300207047704710B50068FB
:1026A0000B49884213D10B480169491C016104217F
:1026B0000948FEF74EFF09496FF00E0009680860EF
:1026C000BDE8104001220649044800F013BA10BDCD
:1026D00000440040380000200004024000070020B1
:1026E00059000020F8B5016804460868CA684B69BB
:1026F00010F00F0F4FF0000559D003F0010602F45F
:102700009077374365D0C10705D0D10503D5616CFB
:1027100041F001016164410705D5D90703D0616C1F
:1027200041F002016164810705D5D90703D0616CCE
:1027300041F004016164010707D502F02001314333
:1027400003D0616C41F008016164616C00293AD0EA
:10275000800604D5900602D5204602F0C8FE206807
:102760004069616CC0F38010090700D460B3204653
:1027700002F096FE20684069400621D5206814309A
:1027800050E8001F21F0400140E80012002AF5D176
:10279000E06BA8B16E490165E06BFEF7C8FD00284B
:1027A00011D0E06B016D01B0BDE8F0400847830631
:1027B0000FD593060DD52046BDE8F84002F097BE30
:1027C0002046FFF76BFFF8BD2046FFF767FF656403
:1027D000F8BD266B2023012E7DD1C6067BD5D606FB
:1027E00079D508684868009048694FF002064006AD
:1027F00041D5E16B086840680004000CE8D0A28D68
:102800008242E5D9E085C869B0F5807F2DD0206887
:102810000C3050E8001F21F4807140E80012002ABB
:10282000F5D12068143050E8001F21F0010140E884
:102830000012002AF5D12068143050E8001F21F062
:10284000400140E80012002AF5D184F842302563A7
:1028500020680C3050E8001F21F0100140E8001201
:10286000002AF5D1E06BFEF719FD6663A08DE18DBE
:10287000401A81B22AE0A08DE18D401A81B2E08D2C
:102880000028A5D00029A3D020680C3050E8002FE4
:1028900022F4907240E80027002FF5D12068143010
:1028A00050E8002F22F0010240E80027002FF5D168
:1028B00084F84230256320680C3050E8002F22F065
:1028C000100240E80023002BF5D166632046FFF795
:1028D000E4FEF8BDFFE705062BD5150629D594F8CB
:1028E00041002128F5D1A068B0F5805F01D12069B1
:1028F000B0B1206A411C2162216800784860E08CF8
:10290000401E0004000CE084E3D12068C16821F07F
:102910008001C1602068C16841F04001C160D8E712
:10292000206A0088C0F308004860206A801C20628A
:10293000E5E74006CDD55006CBD5CA68204622F043
:102940004002CA6084F8413000F092F9C1E700000B
:102950009154000870B5040004D094F8410000259B
:1029600010B106E0012070BD84F84050204600F010
:1029700023F8242084F841002068C16821F4005124
:10298000C160204602F014FE2068016921F49041E4
:1029900001612068416921F02A0141612068C16814
:1029A00041F40051C1606564202084F8410084F83E
:1029B00042006563002070BDF0B587B00446142165
:1029C0006846FDF77EFC4448424B21680026424A97
:1029D000103802240325994231D1116841F4801145
:1029E0001160116801F480110591016841F0040142
:1029F0000160016801F004010591016841F00801DE
:102A000001600068082700F00800059090148DE828
:102A10005100CDE9035769463048FEF7ADFC04206C
:102A20008DE85100CDE9035769462D48FEF7A4FC17
:102A3000002211463520FEF707FE352022E0294FFF
:102A40000723B94222D1116841F4003111601168A5
:102A500001F400310591016841F001010160006855
:102A6000694600F0010005900C208DE85100CDE989
:102A700003531D48FEF780FC002211462620FEF776
:102A8000E3FD2620FEF7D2FD07B0F0BD174FB94297
:102A9000FAD1116841F480211160116801F480219C
:102AA0000591016841F0020101600068694600F08B
:102AB000020005904FF440608DE85100CDE90353CA
:102AC0000B48FEF759FC002211462720FEF7BCFDFB
:102AD0002720D7E70050004040380240000802405D
:102AE000000C02400044004000000240004800404A
:102AF0000004024090F84230202B01D002207047A1
:102B000021B11AB10023036302F0D8BD0120704740
:102B100070B5044625480025254E84420FD1012278
:102B20002449FFF7E7FFF088B0F5007F00D3F58078
:102B30002048214A0178F0881154401CF0801F4839
:102B4000844203D101221E49FFF7D4FF1D4884426D
:102B500011D101221C49FFF7CDFF1B48012200784B
:102B60007070B17841B1012915D0022903D15528DF
:102B700001D1B570327070BD012801D1F17841B139
:102B8000F1780129F7D10628F5D1F570B2703571C9
:102B900070BDF27070BD0D4A31795054491CC8B2F5
:102BA00030710828F6D30220B07070BD48070020AD
:102BB0003800002057000020B0010020B806002097
:102BC000580000200007002059000020B00300201A
:102BD0002DE9F843044690F841001F4615460E467D
:102BE000202802D00220BDE8F8838EB185B10020F4
:102BF0006064212084F84100FEF7B8FCA58481467A
:102C0000E584A0684FF02008B0F5805F02D003E0B3
:102C10000120E8E7206910B1354600260EE00025C6
:102C20000CE08021204602F064FDA0B9BDB115F88A
:102C3000010B21684860E08C401EE084E08C4B462C
:102C40004FF0000200970028EBD14FF040012046E2
:102C500002F04FFD40B184F841800320C3E736F80D
:102C6000020BC0F30800E4E784F841800020BAE7D3
:102C70007047FEE710B509490520094C088001227C
:102C800011022046FEF76DFC012251022046FEF79C
:102C900068FC6420401EFDD110BD00002000002013
:102CA0000004024010B501F05BFF032001F0E1FFDA
:102CB00001F024FF032001F0DCFF01F079FF032085
:102CC00001F0D7FF01F022FFBDE81040032001F022
:102CD000D0BF10B501F012FFBDE8104001F040BFB9
:102CE00070B5FFF7F6FF42F6143001F0C2FFFFF7B0
:102CF000D9FF702002F074FD01F0D8FEE12002F04F
:102D00006FFD01F0D3FE082002F06AFD01F0CEFE57
:102D1000002002F065FD01F0C9FE02F0D7F9C820DD
:102D2000FEF718FB42F61E35184C29E000F0D1F8EA
:102D30003220FEF70FFB284601F09BFFFFF7B2FFA2
:102D4000702002F04DFD01F0B1FEE12002F048FDDF
:102D500001F0ACFE082002F043FD01F0A7FE0020C8
:102D600002F03EFD01F0A2FE02F0B0F96168491CDC
:102D700061600A2901D3002070BD6420FEF7EAFAE1
:102D800000F070F80028D1D0012070BD2400002090
:102D900070B586B0054600208DF800008DF804005F
:102DA0008DF808008DF80C008DF810008DF81400D7
:102DB0000646044600F072F807E0052001F059FFCE
:102DC0002046641CA4B2642803D200F056F8000622
:102DD000F3D4FFF767FF712002F002FD01F066FEF9
:102DE00002F0CEFC8DF8000001F00BFF02F0C8FCF1
:102DF0008DF8040001F005FF02F0C2FC8DF8080018
:102E000001F0FFFE02F0BCFC8DF80C0001F0F9FEB1
:102E100002F0B6FC8DF8100001F0F3FE02F0B0FCF9
:102E20008DF8140001F009FF02F050F99DF804003C
:102E30009DF80810064341EA06209DF80C1041EA6F
:102E40000020000928609DF80C009DF8101041EA50
:102E500000209DF8141041EA0020C0F313006860C0
:102E600006B070BD10B500F008F800F06800082842
:102E700001D0002010BD012010BD10B5FFF712FFDA
:102E8000712002F0ADFC01F011FE02F079FC044665
:102E900001F0D3FE02F01AF9204610BD10B5FFF77D
:102EA00001FF702002F09CFC01F000FEAC2002F05B
:102EB00097FC01F0FBFD332002F092FC01F0F6FDDF
:102EC000002002F08DFC01F0F1FDBDE8104002F0A1
:102ED000FDB810B5FFF7E6FE702002F081FC01F0AE
:102EE000E5FDBA2002F07CFC01F0E0FDBDE81040F9
:102EF00002F0ECB870B51E4A0A212DED028BB2EE3D
:102F0000041AD2E91B5090FBF1F390FBF1F401FBA2
:102F10001400C0B200EE100ADBB295FBF1F0B8EE7F
:102F2000400AC6B284B04FF48071C0EE010A00EED0
:102F3000103A1048146EB8EE400A30EE808AFDF761
:102F4000C0F92046FDF7ECFB04460D4618EE100ACA
:102F5000FDF7E6FB41EC100B8DE8700053EC102BF5
:102F60000549044802F072FC04B0BDEC028B70BD50
:102F70005400002030040020BC80000810B5044636
:102F8000007B012802D1206804F0DCF800202060DA
:102F90006060A060207310BD0246012002F07F0334
:102FA0000B70D20908D043F08003401C01F8013BAC
:102FB0000428F3DD4FF0FF3070472DE9F04104465F
:102FC000002500680F462E4610B10220207315E040
:102FD00001202073084604F089FB2060002808D0F7
:102FE000C4E9016702E0206846556D1CA068A8424C
:102FF000F9D8BDE8F081206846556D1CA068A8424C
:10300000F9D866608842F4D22660F2E72DE9FF47DE
:10301000174688468146FDF77BF984B24046FDF7A6
:1030200077F90026E01D04F061FB050025D0E11DC5
:10303000FDF747F912A02246016829608088A88020
:1030400049462846FDF76BF94046FDF761F903460E
:1030500000200DF1040A012100908AE88300424615
:1030600029460A2000F042F900B10126284604F062
:1030700069F8304604B0BDE8F0870120FAE70000A7
:1030800024637273702F00002DE9FF5F9A46934608
:1030900000251046DDF844900E9F139CFDF738F98B
:1030A00006B2BBF1000F1FD006F111001FFA80F825
:1030B00007B10225109868B145F00405FDF728F91D
:1030C000C7B24846FDF724F9C11901EB0800001DFD
:1030D0001FFA80F80F9870B1012807D0022808D095
:1030E000022004B0BDE8F09F0120FAE745F00C058E
:1030F00001E045F01405129808B145F02405009848
:1031000060B3019850B345F0C0050098FDF700F991
:1031100007460198FDF7FCF8391801EB0800001D7F
:1031200087B239462046FFF748FF2068C0B13946CC
:10313000FDF7C7F8D4E90030411C102261601A5431
:10314000D4E900010144781FFFF726FF00B20028F0
:1031500008DA2046FFF712FF0520C2E70320C0E788
:103160000420BEE7616823680844411C61600022B6
:103170001A54D4E90030421C042162601954D4E985
:103180000070421C4D2362603B54D4E90070421C25
:10319000626051233B54D4E90030471C54226760DD
:1031A0001A54D4E90070431C63603A54D4E90030E7
:1031B000421C62601954D4E90020411C616015541E
:1031C000D4E90030411C4FEA1A2261601A54D4E954
:1031D0000030421C626003F800A0D4E90030411CBA
:1031E000320A61601A54D4E90020411C616016540F
:1031F000D4E90001084432465946FDF790F860686A
:1032000030446060680736D5B9F1000F01D10FF284
:10321000D8091098FDF77CF886B2D4E90030411C3B
:10322000320A61601A54D4E90020411C61601654CE
:10323000D4E90001084432461099FDF770F860683F
:10324000304460604846FDF763F886B2D4E9003048
:10325000411C320A61601A54D4E90020411C6160AB
:103260001654D4E90001084432464946FDF757F8A0
:10327000606830446060280618D50098FDF748F86B
:1032800086B2D4E90030411C320A61601A54D4E994
:103290000020411C61601654D4E900010844324604
:1032A0000099FDF73CF8606830446060680618D506
:1032B0000198FDF72DF885B2D4E90030411C2A0AA7
:1032C00061601A54D4E90020411C61601554D4E9AE
:1032D000000108442A460199FDF721F86068284456
:1032E00060600020FDE60000000000002DE9FF4FB7
:1032F00081B04FF000059046119C0F999A465FEA05
:10330000000BA9462A4608D1012005B0BDE8F08F80
:10331000232816D02B2814D06D1C0298405D00285D
:10332000F6D142F0300709B147F0010705EB0A0674
:103330000E98B61C68B1012805D0022806D00320DB
:10334000E3E70220E1E747F0020701E047F0040766
:10335000B61CB8F1000F03D098F80000022807D07F
:10336000711D2046FFF729FE206848B3711D13E048
:10337000002018F80010401C7D29FAD100F1040942
:10338000AAEB0900311A00912046C91CFFF715FE6F
:103390002068A8B10099C91CFCF793FFD4E900206C
:1033A000411C61601754D4E9000101443046FFF725
:1033B000F3FD002806DA2046FFF7E0FD0520A4E72C
:1033C0000420A2E7616823680844411C2A0A61605E
:1033D0001A54D4E90020411C61601554D4E900015D
:1033E00008442A460299FCF79AFF60682844606006
:1033F0000E9959B12368411C4FEA1B2261601A548F
:10340000D4E90030421C626003F800B0B8F1000F4C
:103410000ED098F800000228D4E90001084409D031
:1034200052464146FCF734FF616801EB0A006060D8
:1034300000206AE74A464146FCF72AFF616801EB33
:103440000900F4E770B50C46054604212046FFF755
:10345000B4FD2168B9B160687023421C62600B54EE
:10346000D4E90030411C022261601A54D4E90030D2
:10347000411C2A0A61601A54D4E90020411C616091
:103480001554002070BD012070BD70B50C46054676
:1034900004212046FFF791FD2168B9B160686223DD
:1034A000421C62600B54D4E90030411C022261606E
:1034B0001A54D4E90030411C2A0A61601A54D4E934
:1034C0000020411C61601554002070BD012070BDBA
:1034D0002DE9F0474FF00007089C984616468A46AB
:1034E0005FEA00093D460AD10120BDE8F08756F8A1
:1034F000250018B3FCF70CFF6D1C0744EDB24545E1
:10350000F5D308EB4800C519E91D2046AD1CFFF7AF
:1035100054FD2168A1B160688223421C62600B5493
:10352000D4E9000101442846FFF736FD00B2002827
:1035300008DA2046FFF722FD0420D6E70220D4E770
:103540000320D2E7616823680844411C4FEA19222E
:1035500061601A54D4E90030421C626003F80090A4
:10356000002520E056F82500FCF7D2FE0746020AA7
:10357000D4E90030411C61601A54D4E90020411C98
:1035800061601754D4E90001084456F825103A4602
:10359000FCF7C5FE606823683844421C62606D1CFD
:1035A00003F800A0EDB24545DCD300209DE7F0B55F
:1035B0000446002001235D05106012E0275C1668B8
:1035C00007F07F0707FB03661660265C360601D40A
:1035D000401CF0BDDB01AB4202D36FF00100F0BD37
:1035E000401C8842EADB4FF0FF30F0BD2DE9F84384
:1035F0000D4607461C4690462F21801DFCF77EFE97
:103600000021009150B3461C6A460421781CFFF744
:10361000CEFF252004F06AF8286008B32521FCF7C6
:1036200050FE242231462868FCF732FE00982436EA
:103630002C3880B22080401C04F058F8C8F80000F4
:1036400080B12188491CFCF73CFE22883146D8F81D
:103650000000FCF71DFE0020BDE8F8830120FBE719
:103660000220F9E7286803F06DFD0320F4E74178B4
:10367000022901D001207047817819B1012901D0B8
:10368000FF207047C07870472DE9F84F0546007855
:10369000DDE90A7B00F00F0900200E460090C9F317
:1036A000410114468BF80010984609F0080A6A4652
:1036B0000421681CFFF77BFF054400986D1C02285D
:1036C00043D35FEAC97040D1288840BA208000996E
:1036D000801C88427AD83EA1A81CFCF7FDFD10B1E1
:1036E0000F20BDE8F88F9BF8000020B101282DD0F5
:1036F00002286BD12AE0BAF1000F67D12088401C64
:1037000003F0F4FF3060002860D02188491CFCF7EA
:10371000D8FD2288A91C3068FCF7BAFD20880099E2
:10372000081A801E80B23880401C03F0DFFFC8F802
:10373000000038B13988491CFCF7C3FD3A8820885D
:10374000AD1C33E0306803F0FDFC3FE02088009AB8
:10375000811C91423AD8A91C08440C99008840BAAF
:1037600008800C9890B32088401C03F0BFFF3060A5
:1037700060B32188491CFCF7A4FD2288A91C30688D
:10378000FCF786FD20880099081A001F80B2388057
:10379000401C03F0ABFFC8F800000028D2D03988E5
:1037A000491CFCF78EFD3A8820882D1D4119D8F858
:1037B0000000FCF76DFD2B213046FCF79FFD28B97A
:1037C00023213046FCF79AFD00288AD0FF2088E7A5
:1037D00024637265710000004178022904D1817868
:1037E00011B9C0780A2801D0012070470020704725
:1037F0004178022904D1817811B9C0780A2801D012
:1038000001207047002070474178022904D1817857
:1038100011B9C0780A2801D00120704700207047F4
:103820004278022A09D18278B2EB112F05D1C078F3
:10383000C9B2884201D100207047012070470000C2
:1038400038B504460078FF210009421E0E2A01D334
:10385000084638BD0328FCD1002000906A460421A8
:10386000601CFFF7A4FE20440099401C022907D3E6
:103870002278D20704D1028852BA921C8A4201D916
:10388000FF2038BD04A1801CFCF726FD08B10F20E5
:1038900038BD032038BD000024637265710000004C
:1038A0000146FF208A78002A0BD1CA78142A08D151
:1038B000087938B1012805D0022803D0802803D028
:1038C0000220704700207047012070470146012008
:1038D0008A78002A03D1C9781E2900D100207047B8
:1038E0002DE9F04F87B014216846FCF7EAFC5E48EA
:1038F0000024016841F004010160016801F0040145
:103900000591016841F080010160016801F08001CA
:103910000591016841F001010160016801F00101B8
:103920000591016841F002010160016801F00201A6
:103930000591016841F010010160016801F010017A
:103940000591016841F0080101600068DFF81C91F1
:1039500000F008000590002220214846FDF701FEF6
:10396000DFF80CA1002220215046FDF7FAFD0022CD
:10397000E6214048FDF7F5FDDFF8FCB04FF4A06705
:10398000002239465846FDF7ECFD4FF4306800221E
:1039900041463A48FDF7E5FD01224FF440713548B4
:1039A000FDF7DFFD202601250096CDE9015469468B
:1039B00048460394FDF7E0FC0096CDE901546946C2
:1039C00050460394FDF7D8FCE6200090CDE9015461
:1039D000694628480394FDF7CFFC0097CDE90154D0
:1039E000694658460394FDF7C7FCCDF80080CDE941
:1039F0000154694621480394FDF7BEFC4FF488400A
:103A0000CDE9000469461D480294FDF7B5FCE803C2
:103A10008DE8310069464846FDF7AEFCF3208DE89D
:103A2000310069461548FDF7A7FC10208DE83100EC
:103A300069461048FDF7A0FC28021126CDE90006D2
:103A40000220CDE9025069460A48FDF795FC68025C
:103A5000CDE90006CDE9025469460648FDF78CFC25
:103A600007B0BDE8F08F000030380240000002408F
:103A7000000802400004024000100240000C024016
:103A800010B586B000241648009401940294039463
:103A900004944FF08041059401605321C0E9011462
:103AA00040F2E731C0E903148461FEF7F5F808B18C
:103AB000FDF7F2FB4FF48050009069460848FEF78E
:103AC0008FF908B1FDF7E8FB049404A904480594B4
:103AD000FEF79AF8002801D0FDF7DEFB06B010BD16
:103AE0005005002010B58EB0002407940894099466
:103AF0000A940B941C2168460C94FCF7E2FB2248C4
:103B0000204901605321C0E9011440F2E731C0E9C6
:103B100003148461FEF7C0F808B1FDF7BDFB4FF454
:103B20008050079007A91848FEF75AF908B1FDF729
:103B3000B3FB1548FEF7D5FB08B1FDF7ADFB0B94C1
:103B40000BA911480C94FEF75FF808B1FDF7A4FB30
:103B50006020CDE900040294002269460A480494DA
:103B6000FEF759FB08B1FDF797FB042269460648AA
:103B7000FEF751FB08B1FDF78FFB0348FEF722FB70
:103B80000EB010BD000400409805002010B58CB0A8
:103B900024216846FCF795FB002416480994144933
:103BA0000A94C0E900144FF6FF71C0E902410461B4
:103BB00084610320CDE900040120CDE902040494CE
:103BC000CDE90540079469460A480894FEF776F95E
:103BD00008B1FDF761FB099409A906480A94FEF7AC
:103BE00013F8002801D0FDF757FB0CB010BD000002
:103BF00000080040E005002010B58CB02421684684
:103C0000FCF75FFB00241548099413490A94C0E9A6
:103C10000014611EC0E90241046184610320CDE902
:103C200000040120CDE902040494CDE90540079485
:103C300069460A480894FEF741F908B1FDF72CFBE4
:103C4000099409A905480A94FDF7DEFF002801D070
:103C5000FDF722FB0CB010BD000C00402806002030
:103C60001CB500240E4800940C49019401605321B6
:103C7000C0E901144FF6FF718461C160FEF70CF8D2
:103C800008B1FDF709FB0094694605480194FDF76A
:103C9000BBFF002801D0FDF7FFFA1CBD001000405B
:103CA000700600200C4810B50A4901604FF4E1315C
:103CB0004160002181600C22C160C0E90412816171
:103CC000C161FEF747FE002803D0BDE81040FDF7B4
:103CD000E3BA10BD00500040B80600200C4810B5F3
:103CE0000A4901604FF4E1314160002181600C22FA
:103CF000C160C0E904128161C161FEF72BFE00289A
:103D000003D0BDE81040FDF7C7BA10BD0044004025
:103D1000000700200C4810B50A4901604FF4E1315A
:103D20004160002181600C22C160C0E90412816100
:103D3000C161FEF70FFE002803D0BDE81040FDF77B
:103D4000ABBA10BD00480040480700202DE9F04103
:103D5000544D4FF47A762DED028BA8B1771005F112
:103D60008004012819D0022841D003287CD1206E7C
:103D700014F83C1FC0F57A72012000F0DDFFA06A44
:103D8000C0F57A72207981E0AE60324600210120D0
:103D9000EE6000F0D1FF324627E0E16D40F2523292
:103DA000484200EB800002EBC000C1EBC10101EB17
:103DB00081014FF44D7202EB41014FF47572C5E978
:103DC0000201904200D3AA60914200D3EA60A86841
:103DD000B84200D8AF60E868B84200D8EF60002170
:103DE0000120AA6800F0A8FFEA6800214FE0E86F10
:103DF0000022A0F2DC51B14203D822656265A265BF
:103E00002AE040F6C4139FED288B984203D9A0F610
:103E1000C410226506E040F2DC5290421CD2012020
:103E200020654842FCF737FC0E4646EC100B054671
:103E300053EC182B51EC100BFCF73BFBFCF757FC39
:103E400046EC105B606553EC182B51EC100BFCF743
:103E500030FBFCF74CFCA065A06840F6AC518842F2
:103E600003D3606DC83804E018E0B84202D8606D32
:103E7000C830A065606D14F8501FC0F57A7201203B
:103E800000F05AFFA068C0F57A722078C1B2BDEC8C
:103E9000028B0220BDE8F04100F04EBFBDEC028B6A
:103EA000BDE8F08154000020000000000000D43F75
:103EB0002DE9F0414FF400411E48FDF745FB002578
:103EC0001D4C012638B326701C4F01213846FDF7E2
:103ED0003BFB10B3667002213846FDF735FBF0B1AD
:103EE000A67010213846FDF72FFBD0B1E6702021D7
:103EF0003846FDF729FBB0B1267140213846FDF761
:103F000023FB90B1667180213846FDF71DFB70B12F
:103F1000A671BDE8F0812570D6E76570DBE7A57076
:103F2000DFE7E570E3E72571E7E76571EBE7A5718A
:103F3000EFE700000000024030050020000C0240C6
:103F4000FEE7FEE710B5002000F048F9E22000F09F
:103F5000CDF8BDE81040012000F040B910B50020B8
:103F600000F03CF9E12000F0C1F8BDE8104001206C
:103F700000F034B910B5002000F028F9012000F05D
:103F80002DF9002000F03AF9BDE81040002000F0C3
:103F90002DB9000010B5FFF7EDFF0821002000F05B
:103FA00035F93F21012000F031F90121022000F014
:103FB0002DF90321084600F029F90321042000F01F
:103FC00025F90221052000F021F90E21062000F03C
:103FD0001DF90921112000F019F9052207490A20CD
:103FE00000F026F9FFF7BAFFFFF7ACFF70210720BA
:103FF00000F00CF9BDE8104000F064B805000020A6
:1040000010210148FDF7A0BA0004024010B5044693
:10401000002000F0E3F8204600F068F8FF2000F0F0
:1040200065F80446012000F0D9F8204610BD70B5AF
:1040300006460D46002000F0D1F8612000F056F849
:10404000002405E0FF2000F051F83055641CE4B274
:10405000AC42F7D3BDE87040012000F0BFB810B506
:10406000002000F0BBF8FF2000F040F804460120DB
:1040700000F0B4F8204610BD10B5FFF7F0FF04467D
:104080000020FFF7C3FF800701D4032412E0C4F32C
:10409000011003280DD060060FD50124092108481E
:1040A000FFF7C5FF4021072000F0B0F8FFF74AFFF7
:1040B00004E00224FFF76EFF00E00024204610BD5C
:1040C0007501002010B5002000F080F80020FFF7F7
:1040D0009DFFFF2809D040F00301002000F096F872
:1040E000BDE81040012000F071B810BD70B5044665
:1040F0000025200601D5012000E0002000F076F820
:104100006006040E012000F079F8FFF779FF08B18E
:1041100044F00104002000F071F86D1CEDB2082D90
:10412000E7D3204670BD000010B505221A491020C3
:1041300000F07EF8052218490A2000F079F80921DC
:10414000164800F08EF800F02BF841F28834FFF7A3
:1041500086FF641E07D0C0F30111032905D0C106F4
:1041600007D5022402E0042400E00324FFF712FF35
:1041700002E08006EBD501243021072000F046F84C
:10418000FFF7ECFE04490522491D0A2000F050F813
:10419000FFF798FF204610BD000000206C010020B2
:1041A00010B5002000F012F80020FFF72FFFFF28C5
:1041B0000BD020F0010040F00201002000F026F8B2
:1041C000BDE81040012000F001B810BD02464021BA
:1041D0000148FDF7C6B900000004024002468021F4
:1041E0000148FDF7BEB9000000040240024620214C
:1041F0000148FDF7B6B90000000402400246202144
:104200000148FDF7AEB900000000024070B5044659
:104210000D460020FFF7E2FF44F02000FFF766FFA5
:104220002846FFF763FFBDE870400120FFF7D6BFC7
:1042300070B5044615460E460020FFF7CFFF44F048
:104240002000FFF753FF002404E0305DFFF74EFF2E
:10425000641CE4B2AC42F8D3BDE870400120FFF723
:10426000BDBF70B506460D460020FFF7B7FFA02082
:10427000FFF73CFF002404E0305DFFF737FF641CCC
:10428000E4B2AC42F8D3BDE870400120FFF7A6BF0E
:1042900030B58BB0002406940794089401252DA313
:1042A0002E4A2FA131A0099401F0C0FA06A8CDE949
:1042B00004400120CDE9000403020294039425A2E6
:1042C000264927A0FEF7E0FE28B135A001F0AEFA9E
:1042D0000BB0284630BD3BA0079901F0A7FA07981C
:1042E00081B20698FCF7A2FF40A001F09FFA4FF4BC
:1042F0007A70FCF7D3FE044645A001F097FA002C33
:104300001CD021784AA001F091FA2046FFF798FAD4
:10431000022813D12046FFF7AAF9062818D2DFE8B1
:1043200000F003080A1113154DA001F07FFA0025D3
:1043300004E050A000E056A001F078FA06A8FEF7CD
:104340001DFEC5E75BA0F7E762A0F5E76AA0F3E70B
:1043500074A0F1E750656E6100000000188000084D
:104360006E45344841724B334E3300004F6E654EFC
:1043700065745F4465764C696E6B0D0A50524F4907
:10438000443A2025732C09544F4B454E3A2025734F
:104390002C2044455649443A25730D0A000000007C
:1043A0005741524E3A094D5154545F5061636B6509
:1043B00074436F6E6E656374204661696C65640D4D
:1043C0000A000000B2BDD6E831A3BA4D515454C121
:1043D000ACBDD3B0FCB4B4BDA8B3C9B9A6A3ACB04E
:1043E000FCB3A4B6C8A3BA25640D0A00B2BDD6E8D2
:1043F00032A3BA455350383236365F53656E644443
:1044000061746120B5F7D3C3CDEAB3C90D0A0000CA
:10441000B2BDD6E833A3BAB5C8B4FD3173BDD3CAB3
:10442000D5C6BDCCA8CFECD3A62E2E2E0D0A0000EB
:10443000B2BDD6E834A3BAB3C9B9A6CAD5B5BDC60C
:10444000BDCCA8CFECD3A6CAFDBEDDA3ACCAD7D7DE
:10445000D6BDDAA3BA3078253032580D0A000000F4
:10446000546970733A09C1ACBDD3B3C9B9A60D0A7A
:10447000000000005741524E3A09C1ACBDD3CAA753
:10448000B0DCA3BAD0ADD2E9B4EDCEF30D0A000092
:104490005741524E3A09C1ACBDD3CAA7B0DCA3BA4A
:1044A000B7C7B7A8B5C4636C69656E7469640D0A53
:1044B000000000005741524E3A09C1ACBDD3CAA713
:1044C000B0DCA3BAB7FECEF1C6F7CAA7B0DC0D0ABE
:1044D000000000005741524E3A09C1ACBDD3CAA7F3
:1044E000B0DCA3BAD3C3BBA7C3FBBBF2C3DCC2EB34
:1044F000B4EDCEF30D0A00005741524E3A09C1AC5B
:10450000BDD3CAA7B0DCA3BAB7C7B7A8C1B4BDD3DF
:1045100028B1C8C8E7746F6B656EB7C7B7A8290D17
:104520000A0000004552523A09C1ACBDD3CAA7B037
:10453000DCA3BACEB4D6AAB4EDCEF30D0A000000C7
:1045400070B588B0002406460D4604940594069480
:1045500008460794FBF7DCFE034604A80121CDE9D9
:10456000021000942A46019431460A20FEF7BEFE4E
:10457000002807D1059881B20498FCF757FE04A8DB
:10458000FEF7FCFC08B070BD2DE9F0478EB04FF08F
:104590000008CDF82480CDF82880CDF82C80ADF827
:1045A0000C800646CDF83080CDF81080CDF8148010
:1045B000ADF818808DF820804446FFF741F9054694
:1045C000C01E644F0D287AD2DFE800F01F636A7CBA
:1045D00097B09EB0A6B0B0B0070003AB04AA05A97F
:1045E0003046FFF703F804004DD1DDE90421BDF8A2
:1045F0000C3059A001F01AF9DDE9041009AAFEF700
:1046000005FD0028F0D15DA06CE0524A08A9921C7B
:1046100003A88DE8070004AB06AA05A93046FFF7FA
:1046200033F80400E0D1BDF80C000090DDE904315E
:10463000BDF8182057A001F0F9F8049802F014FD15
:10464000824663A102F0F4FC814663A102F0F0FC13
:10465000064664A1484602F0EBFC70B1C068624AAD
:10466000624B4FF4807101280ED002203870C2F8DE
:10467000008001221846FCF774FF0EB17069786063
:10468000504602F0B1FC53E0012038701060002267
:10469000F0E73046FFF7A0F8002849D154A040E0E9
:1046A0003046FFF7B1F8002842D159A001F0BEF81A
:1046B00009A90A20FEF7E9FE002839D100E035E01B
:1046C00059A00FE079883046FFF7AAF800282FD1CB
:1046D0005BA001F0ABF809A90A20FEF7B3FE0028A1
:1046E00026D15DA001F0A2F80A9881B20998FCF7E2
:1046F0009DFD09A8FEF742FC1AE03046FFF778F866
:10470000002815D15BA00CE03046FFF7C9F808B1CE
:104710005EA006E064A004E03046FFF7D7F818B1C9
:1047200068A001F083F803E06EA0FAE74FF0FF34D1
:10473000FCF77CFB641C09D00F2D01D0032D05D1A3
:10474000059802F0FFFC049802F0FCFC0EB0BDE8F6
:10475000F08700004C000020636D6469643A2025F6
:10476000732C207265713A2025732C207265715F5D
:104770006C656E3A2025640D0A0000005469707360
:104780003A0953656E6420436D64526573700D0A77
:1047900000000000746F7069633A2025732C207448
:1047A0006F7069635F6C656E3A2025642C207061C0
:1047B000796C6F61643A2025732C207061796C6F7D
:1047C00061645F6C656E3A2025640D0A000000008C
:1047D000706172616D73000074656D705F666C6FFF
:1047E000617400004C65640080000020000C0240F1
:1047F000546970733A094D515454205075626C6974
:1048000073682053656E64204F4B0D0A0000000052
:10481000546970733A09526576205075626C6973F9
:10482000685265630D0A0000546970733A09536554
:104830006E64205075626C69736852656C0D0A0075
:10484000546970733A09526576205075626C6973C9
:104850006852656C0D0A0000546970733A0953651B
:104860006E64205075626C697368436F6D700D0AD9
:1048700000000000546970733A0952657620507543
:10488000626C697368436F6D700D0A0054697073D0
:104890003A094D51545420537562736372696265CD
:1048A000204572720D0A0000546970733A094D5127
:1048B000545420537562736372696265204F4B0DC7
:1048C0000A000000546970733A094D515454205540
:1048D0006E537562736372696265204572720D0A68
:1048E00000000000546970733A094D51545420552A
:1048F0006E537562736372696265204F4B0D0A00D7
:10490000F0B585B000240E46074601940294039446
:10491000049406E057F824100DA000F087FF641CF3
:10492000E4B2B442F6D301A8009033463A460021DF
:104930001420FEF7CDFD002807D1029881B201981E
:10494000FCF774FC01A8FEF719FB05B0F0BD0000F0
:1049500053756273637269626520546F7069633A5C
:104960002025730D0A000000C0ED061A80ED082A0C
:1049700080EC030A7047000090ED031A30EE600AE5
:1049800080ED041A80ED030A70EE410A90ED021AE0
:1049900090ED012A60EE811AD0ED000A20EE201A77
:1049A000D0ED050A40EE020AC0ED050A90ED060AB8
:1049B000F4EEC00AF1EE10FA06DCB1EE400AF4EEB5
:1049C000C00AF1EE10FA01D280ED050A31EE810A3B
:1049D000D0ED050A30EE200A80ED070AD0ED080A76
:1049E000B4EEE00AF1EE10FA02DDC0ED070A7047FE
:1049F000F1EE600AB4EEE00AF1EE10FAF7D29FEDA4
:104A0000020A80ED070A70470000000090ED031ACB
:104A100030EE600A80ED041A80ED030A70EE410A60
:104A200090ED021A90ED012A60EE811AD0ED000A95
:104A300020EE201AD0ED050A40EE020AC0ED050A6C
:104A400090ED060AF4EEC00AF1EE10FA06DCB1EEC3
:104A5000400AF4EEC00AF1EE10FA01D280ED050A28
:104A600031EE810AD0ED050A30EE200A80ED070A0A
:104A7000D0ED080AB4EEE00AF1EE10FA06DCF1EE31
:104A8000600AB4EEE00AF1EE10FA01D2C0ED070AB6
:104A90007047704704480178012901D00020704711
:104AA00000210170012070473800002070B50024FB
:104AB00000F02CF800F032F8042000F0DAF800F0F2
:104AC0001DF8042000F0D5F84FF400750A4E01E0FF
:104AD000641CA4B229463046FCF736FD08B1642CAC
:104AE000F6D3642C06D000F011F8042000F0C1F8D1
:104AF000012070BD002070BD00040240012211029F
:104B00000148FCF72EBD00000004024000224FF4D3
:104B100080710148FCF725BD0004024000B587B054
:104B200014216846FBF7CDFB0B480021026842F0D8
:104B300002020260006800F0020005904FF400706D
:104B4000CDE900010120CDE9020169460348FCF7E7
:104B500013FC07B000BD00003038024000040240E2
:104B600030B587B014216846FBF7ABFB0E48002236
:104B7000016841F00201016000684FF4007400F028
:104B8000020005901120CDE900400120CDE902028C
:104B9000064D69462846FCF7EFFB012221462846D0
:104BA000FCF7DFFC07B030BD3038024000040240A3
:104BB00030B587B014216846FBF783FB0E4800220E
:104BC000016841F00201016000684FF4007400F0D8
:104BD000020005901120CDE900400120CDE902023C
:104BE000064D69462846FCF7C7FB002221462846A9
:104BF000FCF7B7FC07B030BD30380240000402407B
:104C0000704710B5FFF782FF032000F032F8FFF77E
:104C1000CFFF032000F02DF8FFF770FF032000F016
:104C200028F8FFF773FF032000F023F8FFF776FF63
:104C3000BDE81040032000F01CB810B5FFF766FF78
:104C4000042000F016F8FFF78BFF042000F011F8A5
:104C5000FFF754FF042000F00CF8FFF757FF042083
:104C600000F007F8FFF7A4FFBDE810400420AFF301
:104C7000008000B5801E020004D00120FCF7CFF8B0
:104C8000521EFAD100BD00002DE9F04781460D48C3
:104C90001F461646058888460024F2B23B46414628
:104CA000484600F08DF800280AD0002D08D0214693
:104CB000641CE4B2042903D82846FCF74BFBECE75C
:104CC000BDE8F087200000202DE9F05F8A461949F1
:104CD0001E469346B1F8008000254FEA400954462D
:104CE0000BF0FF0700F038F909F0FF0000F088F939
:104CF00080B9204600F084F960B9002405E0305DF9
:104D000000F07EF930B9641CE4B2BC42F7D300F085
:104D100057F9002000280BD0B8F1000F08D0294621
:104D20006D1CEDB2042903D84046FCF713FBD6E70F
:104D3000BDE8F09F200000202DE9F0411D4B1E4EE4
:104D40001E4D14464FF48067012805D002281AD161
:104D5000D9B1012920D029E011B1012907D010E0F3
:104D6000002239461846FCF7FCFB002205E0012230
:104D700039461846FCF7F5FB012202213046FCF7C4
:104D8000F0FB28684463BDE8F081002239461846EC
:104D9000FCF7E7FB002205E0012239461846FCF744
:104DA000E0FB012202213046FCF7DBFB286884632C
:104DB000E9E70000001002400004024098050020CE
:104DC0002DE9F0411D4614460F46064600F0C4F892
:104DD0007006000E00F014F900281CD1384600F0CF
:104DE0000FF9002817D100F0B7F8012000EB4600BA
:104DF000C0B200F005F900280DD107E0012C0CD05D
:104E000000F05CF8641E05F8010BE4B2002CF5D14B
:104E100000F0D6F80020BDE8F08100F001F8F1E7DD
:104E20002DE9F0470122244E570239463046FCF75F
:104E300098FB4FF48078002241463046FCF791FB06
:104E40000024B94625464746012239463046FCF73C
:104E500088FB1420401EFDD16006040E49463046F2
:104E6000FCF772FB08B144F00104002239463046D9
:104E7000FCF777FB1420401EFDD16D1CEDB2082D10
:104E8000E2D3012249463046FCF76BFB1420401E5A
:104E9000FDD1012239463046FCF763FB1420401E49
:104EA000FDD1002239463046FCF75BFB1420401E42
:104EB000FDD12046BDE8F087000402402DE9F0470F
:104EC0000122244E570239463046FCF74AFB4FF484
:104ED0008078002241463046FCF743FB0024B94667
:104EE00025464746012239463046FCF73AFB142056
:104EF000401EFDD16006040E49463046FCF724FBF7
:104F000008B144F00104002239463046FCF729FB81
:104F10001420401EFDD16D1CEDB2082DE2D30022FD
:104F200049463046FCF71DFB1420401EFDD10122EE
:104F300039463046FCF715FB1420401EFDD10022F7
:104F400039463046FCF70DFB1420401EFDD12046AB
:104F5000BDE8F0870004024070B50122174E5402EC
:104F600021463046FCF7FDFA1421491EFDD10122ED
:104F7000150229463046FCF7F4FA1421491EFDD1EA
:104F800021463046FCF7E0FAB0B100222146304617
:104F9000FCF7E7FA1422521EFDD129463046FCF7F1
:104FA000E0FA1422521EFDD121463046FCF7CCFA1D
:104FB000002800D0022070BD012070BD0004024016
:104FC00070B50E4D4FF40074002221462846FCF7C0
:104FD000C8FA1422521EFDD1012211022846FCF704
:104FE000C0FA1422521EFDD1012221462846FCF7A8
:104FF000B8FA1420401EFDD170BD0000000402402C
:105000002DE9F041184E05464FF4807700223946CD
:105010003046FCF7A6FA00244FF40078280601D5A4
:10502000012200E0002241463046FCF79AFA680669
:10503000050E1420401EFDD1012239463046FCF7F2
:1050400090FA1420401EFDD1002239463046FCF76C
:1050500088FA1420401EFDD1641CE4B2082CDDD374
:10506000BDE8F04100F002B8000402402DE9F04133
:105070000122154D5602002431462846FCF771FAEC
:105080001422521EFDD10122170239462846FCF790
:1050900068FA1420401EFDD108E0641CE4B2FA2C2A
:1050A00004D9FFF78DFF0220BDE8F0813146284684
:1050B000FCF74AFA0028F0D1002239462846FCF7CE
:1050C00050FA0020F0E700000004024010B5FFF79E
:1050D0006FFD0420FFF7CDFDFFF710FD0420FFF763
:1050E000C8FDFFF73DFDBDE810400420FFF7C1BD3E
:1050F000FCF742BA30B593B030216846FBF7E1F8CF
:1051000014210CA8FBF7DDF81C480025016841F0CC
:1051100080510160006800F08050119018480168CB
:1051200041F4804101600068022400F48040119045
:105130000120039010200490009406940820CDE9EB
:105140000750A820CDE9090404200B906846FCF71D
:1051500099FB08B172B6FEE70CA90F2081E8310077
:105160004FF4A0500F90109005210CA8FCF79EFA68
:10517000002801D072B6FEE713B030BD40380240BF
:10518000007000400248016841F4700101607047FE
:1051900088ED00E00148FCF77DBF000050050020CD
:1051A000F0B50268294D2A4E2A4FDFF8ACC02B4BD0
:1051B0004FF0804EA84209D0704507D0B04205D0CC
:1051C000B84203D0604501D0984203D122F0700468
:1051D0004A682243A8421BD0704519D0B04217D06C
:1051E000B84215D0604513D0984211D01C4CA04253
:1051F0000ED01C4CA0420BD01B4CA04208D01B4C24
:10520000A04205D01A4CA04202D01A4CA04203D1B1
:1052100022F44074CA6822434C6922F0800222437F
:1052200002608A68C2620A688262A84201D098421B
:1052300001D109690163012141610169C90703D0F5
:10524000016921F001010161F0BD00000000014091
:105250000004004000080040000C00400004014031
:105260000040014000440140004801400018004057
:10527000001C00400020004010B501F01F01012378
:10528000046A8B409C430462036A8A4013430362AE
:1052900010BD10B5846842EA032224F47F440A4317
:1052A0002243826010BD826822F070020A4342F0FD
:1052B0000701816070470000F0B5026A036A23F0BD
:1052C0000103036243688469114E24F073050C687E
:1052D000104F2C4322F002058A682A43B04201D0C5
:1052E000B84205D122F00805CA682A4322F0040218
:1052F000B04201D0B84205D14D6923F440731D433B
:105300008B692B4343608461496841630262F0BD4D
:105310000000014000040140F0B5026A036A23F076
:1053200010030362436884690D6824F4E64444EA88
:1053300005248D6822F0200242EA05120F4D104E1E
:10534000A84201D0B04206D1CF6822F0800242EAE2
:10535000071222F04002A84201D0B04207D14D69A5
:1053600023F4406343EA85038D6943EA8503436080
:105370008461496881630262F0BD00000000014061
:1053800000040140F0B5026A036A23F480730362EB
:105390004368C46922F4007224F073050C68124E4D
:1053A0002C438D6842EA05220E4DA84201D0B0423E
:1053B00006D1CF6822F4006242EA072222F480621A
:1053C000A84201D0B04207D14D6923F4405343EACB
:1053D00005138D6943EA05134360C4614968C163DD
:1053E0000262F0BD000001400004014030B5036AD4
:1053F000026A22F4805202624268C4690D6824F491
:10540000E64444EA05248D6823F4005343EA053357
:10541000084DA84202D0084DA84204D14D6922F49B
:10542000804242EA85124260C461496801640362B5
:1054300030BD0000000001400004014010B5046AC6
:10544000036A23F001030362836923F0F00343EA54
:10545000021324F00A020A438361026210BD10B5F0
:10546000036A046A24F010040462846923F0A00330
:1054700024F4704444EA023243EA01118261016279
:1054800010BD00000148FDF72DB90000B80600204E
:1054900010B5806B0021C185C184FDF7FFF810BDF8
:1054A00001680C3151E8002F22F4907241E800238A
:1054B000002BF5D10168143151E8002F22F00102D0
:1054C00041E80023002BF5D1016B012909D10168C6
:1054D0000C3151E8002F22F0100241E80023002B8C
:1054E000F5D1202180F8421000210163704708B5F2
:1054F00090F84210222901D0022008BD81684FF4A3
:105500008053994201D1026922B1826A99421BD02B
:1055100049B10AE00268816A5268C2F308020A804F
:10552000816A891C08E0016971B10168496801F06C
:105530007F011170816A491C8162C18D491E090475
:10554000090CC18503D01BE001684968F1E70168D7
:10555000CA6822F02002CA600168CA6822F4807218
:10556000CA6001684A6922F001024A61202180F87C
:10557000421000214163026B012A03D0FDF7C8FAF3
:10558000002008BD016301680C3151E8002F22F0B2
:10559000100241E80023002BF5D101680A68D20609
:1055A00002D50A6849680091818DFDF776F8E7E732
:1055B00070B5044600680169E26821F44051114366
:1055C0000161A1682069E2690143606910430143F8
:1055D0002068C26849F20C639A430A43C26020689B
:1055E0004169A26921F44071114341613149206848
:1055F000884202D03049884202D1FCF701F901E02B
:10560000FCF7EEF8E2690023192164253226B2F591
:10561000004F626828D0A0FB0101930F9200FAF7B7
:10562000CFFD0146B0FBF5F06FF01802504301EBDF
:10563000800006EB0010B0FBF5F000F0F002B1FBCB
:10564000F5F002EB0012B1FBF5F06FF018035843D0
:1056500001EB800006EB0010B0FBF5F000F00F004E
:1056600021681044886070BDA0FB010192185B4165
:10567000FAF7A6FD0146B0FBF5F00201B1FBF5F02B
:105680006FF01803584301EB800006EBC000B0FB3D
:10569000F5F000F0F80002EB4002B1FBF5F05843E2
:1056A00001EB800006EBC000B0FBF5F000F0070056
:1056B000D6E700000010014000140140816282859D
:1056C000C28500214164222180F84210016921B184
:1056D0000168CA6842F48072CA6001684A6942F08F
:1056E00001024A610068C16841F02001C1600020E8
:1056F00070472DE9F8431F4690460D460446089E24
:1057000023E0701C21D0FBF731FFC01BB0421AD838
:10571000CEB12068C168490717D5802D15D0402D1E
:1057200013D00168C94309070FD4016800254068F8
:1057300000902046FFF7B4FE0820606484F84050D3
:105740000120BDE8F8830320FBE72068006835EA04
:10575000000004D000204045D3D00020F1E7012014
:10576000F9E700000148FCF7BDBF0000000700207A
:105770000148FCF7B7BF000048070020FEE7000023
:105780002DE9F0410026FFF7C1F9FFF7C7F9042022
:10579000FFF76FFA00244FF40077DFF84080FFF73F
:1057A000ADF9FBF721FB002539464046FBF7CCFE5F
:1057B00000B1012545EA4600C6B2FFF7A7F9FBF79D
:1057C00013FB641CE4B2082CE9D3FFF7A7F904200B
:1057D000FFF74FFA3046BDE8F081000000040240B8
:1057E00070B5044680260025FFF790F9FBF708FB0B
:1057F000264202D0FFF7B4F901E0FFF7D9F9FFF72D
:105800007DF9FBF7FDFA60066D1C040EEDB2082D64
:10581000EAD3FFF77BF90420FFF72BFAFFF77EF9B5
:10582000BDE870400420FFF724BA00000FB4054B18
:1058300010B503A9044A029801F016F810BC5DF8EF
:1058400014FB00002D7100085C0100200FB4084B10
:1058500010B504A902AA039801F006F8044602A9AB
:10586000002001F098FB204610BC5DF814FB0000FE
:10587000976F000803B401984100009850EAC120D6
:1058800018BF04204A0D18BF40F0010040F2FF721B
:10589000B2EB515F08BF40F00200012808BF0520AD
:1058A00002B070470907090E002804DB00F1E02070
:1058B00080F80014704700F00F0000F1E02080F83D
:1058C000141D7047000000002DE9F04D2DED040B74
:1058D0002DED0E8B96B0DDE92550279CDDF890A0CC
:1058E00025F0004624F00048BAF1000F14BF012152
:1058F000002101EB4502FC4953184A1093422AD378
:10590000002814BF0123002303EB44030B44F74991
:105910008B4220D358EA00019FEDF59B76D0DFF84B
:10592000D8B35D4503D1BAF1000F05D188E0BAF1D3
:10593000000F08BF002100D0012101EB450111F546
:10594000001F08D8002814BF0121002101EB4401E9
:1059500011F5001F0BD99DED261B9DED240B16B0F4
:10596000BDEC0E8B04B0BDE8F04D00F069BE002721
:10597000002DBCBFE149884521DAE1498845A8BF2F
:1059800002271CDAC3451ADCDE4901EB2851142931
:1059900008DDC1F1340220FA02F101FA02F282427A
:1059A0000DD108E058B9C1F1140228FA02F101FA48
:1059B00002F2424503D101F00101C1F1020756EAAA
:1059C0000A0124D1002C22DA002D18BF022F01D0A9
:1059D000012F0AD0022000F07FFE16B0BDEC0E8B26
:1059E00004B0BDE8F04D00F013BE022000F074FEDC
:1059F00000F00EFE51EC100B81F0004141EC100B59
:105A000016B0BDEC0E8B04B0BDE8F08D18E09FED34
:105A1000BEAB9FEDBF8B002871D1B848804522D125
:105A200005F1804010F5801008BFBAF1000F07D0D3
:105A3000B3450ADC002CA8BF9DED260BE0DA0DE093
:105A4000B0EE490AF0EE690ADAE7002C06DA9DEDBD
:105A5000260B51EC100B81F000416FE0AE4878440A
:105A600090ED000BCCE7D8454DD1002C48DA2EB193
:105A700086423AD1BAF1000F42D126E0BAF1000FC6
:105A800013D0022000F028FE00F0F6FD8DED020B91
:105A90009DED240B8DED000B10EE900A039961F340
:105AA0001E0003909DED020BAAE78DED02AB9DED6C
:105AB000240B1AEE901A10EE900A8DED000B61F394
:105AC0001E0003909DED020B9AE78DED028B9DED7C
:105AD000240B18EE901A10EE900A8DED000B61F376
